{
  "transactions": [
    {
      "hash": "0xa2f87bb9e7506ca1fd95ede1271cd667b4727917f7b270a377a3e88eb96323d1",
      "transactionType": "CALL",
      "contractName": null,
      "contractAddress": "0x0844B1EC6ee5E2F575Aa55724057721b9cd30e80",
      "function": "approve(address,uint256)",
      "arguments": [
        "0x60AbEb98b3b95A0c5786261c1Ab830e3D2383F9e",
        "115792089237316195423570985008687907853269984665640564039457584007913129639935"
      ],
      "transaction": {
        "type": "0x02",
        "from": "0xe65fb27fb655f854afc66fa9fbf64f0299499a9f",
        "to": "0x0844b1ec6ee5e2f575aa55724057721b9cd30e80",
        "gas": "0xfbda",
        "value": "0x0",
        "data": "0x095ea7b300000000000000000000000060abeb98b3b95a0c5786261c1ab830e3d2383f9effffffffffffffffffffffffffffffffffffffffffffffffffffffffffffffff",
        "nonce": "0x1c",
        "accessList": []
      },
      "additionalContracts": [],
      "isFixedGasLimit": false
    },
    {
      "hash": "0x76a471af7aa09b23e2e5cce00ff54235661726e757d7c72a7a1f7cabe08a8ea0",
      "transactionType": "CALL",
      "contractName": null,
      "contractAddress": "0x19544eafF5959f228D2d76dF1570B220121518A8",
      "function": "approve(address,uint256)",
      "arguments": [
        "0x60AbEb98b3b95A0c5786261c1Ab830e3D2383F9e",
        "115792089237316195423570985008687907853269984665640564039457584007913129639935"
      ],
      "transaction": {
        "type": "0x02",
        "from": "0xe65fb27fb655f854afc66fa9fbf64f0299499a9f",
        "to": "0x19544eaff5959f228d2d76df1570b220121518a8",
        "gas": "0xfbda",
        "value": "0x0",
        "data": "0x095ea7b300000000000000000000000060abeb98b3b95a0c5786261c1ab830e3d2383f9effffffffffffffffffffffffffffffffffffffffffffffffffffffffffffffff",
        "nonce": "0x1d",
        "accessList": []
      },
      "additionalContracts": [],
      "isFixedGasLimit": false
    },
    {
      "hash": "0x1ca8da2feddf815336aee176f5f3dfdd16408d17f2a6d39a3fe067b893d48129",
      "transactionType": "CALL",
      "contractName": "PoolSwapTest",
      "contractAddress": "0x60AbEb98b3b95A0c5786261c1Ab830e3D2383F9e",
      "function": "swap((address,address,uint24,int24,address),(bool,int256,uint160),(bool,bool,bool),bytes)",
      "arguments": [
        "(0x0844B1EC6ee5E2F575Aa55724057721b9cd30e80, 0x19544eafF5959f228D2d76dF1570B220121518A8, 4000, 10, 0x020664b9f354c415a7D01dAa483CF78aFe02F66E)",
        "(true, 5000000000000000000, 4295128740)",
        "(true, true, false)",
        "0x0000000000000000000000000000000000000000000000004563918244f400000000000000000000000000000000000000000000000000000000000000715d8e0000000000000000000000000000000000000000000000000000000000000000000000000000000000000000000000000000000000000000000000000000005d000000000000000000000000000000000000000000000000000000000000001cc53b5683931b0e7b441654a480036cd1965020be4503e2822b5c8ceda5fc92262e6ddce5967ead4c0f197ed869d29e0a6e27d043b69972a6d488c1df0a606c01"
      ],
      "transaction": {
        "type": "0x02",
        "from": "0xe65fb27fb655f854afc66fa9fbf64f0299499a9f",
        "to": "0x60abeb98b3b95a0c5786261c1ab830e3d2383f9e",
        "gas": "0x4ac60",
        "value": "0x0",
        "data": "0x6646135b0000000000000000000000000844b1ec6ee5e2f575aa55724057721b9cd30e8000000000000000000000000019544eaff5959f228d2d76df1570b220121518a80000000000000000000000000000000000000000000000000000000000000fa0000000000000000000000000000000000000000000000000000000000000000a000000000000000000000000020664b9f354c415a7d01daa483cf78afe02f66e00000000000000000000000000000000000000000000000000000000000000010000000000000000000000000000000000000000000000004563918244f4000000000000000000000000000000000000000000000000000000000001000276a4000000000000000000000000000000000000000000000000000000000000000100000000000000000000000000000000000000000000000000000000000000010000000000000000000000000000000000000000000000000000000000000000000000000000000000000000000000000000000000000000000000000000018000000000000000000000000000000000000000000000000000000000000000e00000000000000000000000000000000000000000000000004563918244f400000000000000000000000000000000000000000000000000000000000000715d8e0000000000000000000000000000000000000000000000000000000000000000000000000000000000000000000000000000000000000000000000000000005d000000000000000000000000000000000000000000000000000000000000001cc53b5683931b0e7b441654a480036cd1965020be4503e2822b5c8ceda5fc92262e6ddce5967ead4c0f197ed869d29e0a6e27d043b69972a6d488c1df0a606c01",
        "nonce": "0x1e",
        "accessList": []
      },
      "additionalContracts": [],
      "isFixedGasLimit": false
    }
  ],
  "receipts": [
    {
      "transactionHash": "0xa2f87bb9e7506ca1fd95ede1271cd667b4727917f7b270a377a3e88eb96323d1",
      "transactionIndex": "0x1",
      "blockHash": "0xf0ed9c1f1c81d40b4743114d670e4df909103b1689a4bd8fae3cbef882f97fd5",
      "blockNumber": "0x715d90",
      "from": "0xE65FB27FB655F854AfC66fA9fBF64f0299499A9F",
      "to": "0x0844B1EC6ee5E2F575Aa55724057721b9cd30e80",
      "cumulativeGasUsed": "0x161ba",
      "gasUsed": "0xb657",
      "contractAddress": null,
      "logs": [
        {
          "address": "0x0844B1EC6ee5E2F575Aa55724057721b9cd30e80",
          "topics": [
            "0x8c5be1e5ebec7d5bd14f71427d1e84f3dd0314c0f7b2291e5b200ac8c7c3b925",
            "0x000000000000000000000000e65fb27fb655f854afc66fa9fbf64f0299499a9f",
            "0x00000000000000000000000060abeb98b3b95a0c5786261c1ab830e3d2383f9e"
          ],
          "data": "0xffffffffffffffffffffffffffffffffffffffffffffffffffffffffffffffff",
          "blockHash": "0xf0ed9c1f1c81d40b4743114d670e4df909103b1689a4bd8fae3cbef882f97fd5",
          "blockNumber": "0x715d90",
          "transactionHash": "0xa2f87bb9e7506ca1fd95ede1271cd667b4727917f7b270a377a3e88eb96323d1",
          "transactionIndex": "0x1",
          "logIndex": "0x0",
          "removed": false
        }
      ],
      "status": "0x1",
      "logsBloom": "0x40000000000000000000000000000010000000000000000000000000000000000000000000200000000000000000000000400000000000000000000000200000000000000000000000000000000000000000000000000000000000000000000000000000000000000000000000000002000000000000000000000000000000000000000000000000000000000000400000000000000000000000000000000004020000000000000000000000000000000000000000000000000000000000000000000000000000000000000000000000004000000000000000000000000000000010000000000000000000040000000000000000000000000000000000000000",
      "type": "0x2",
      "effectiveGasPrice": "0xb5c8a363"
    },
    {
      "transactionHash": "0x76a471af7aa09b23e2e5cce00ff54235661726e757d7c72a7a1f7cabe08a8ea0",
      "transactionIndex": "0x2",
      "blockHash": "0xf0ed9c1f1c81d40b4743114d670e4df909103b1689a4bd8fae3cbef882f97fd5",
      "blockNumber": "0x715d90",
      "from": "0xE65FB27FB655F854AfC66fA9fBF64f0299499A9F",
      "to": "0x19544eafF5959f228D2d76dF1570B220121518A8",
      "cumulativeGasUsed": "0x21811",
      "gasUsed": "0xb657",
      "contractAddress": null,
      "logs": [
        {
          "address": "0x19544eafF5959f228D2d76dF1570B220121518A8",
          "topics": [
            "0x8c5be1e5ebec7d5bd14f71427d1e84f3dd0314c0f7b2291e5b200ac8c7c3b925",
            "0x000000000000000000000000e65fb27fb655f854afc66fa9fbf64f0299499a9f",
            "0x00000000000000000000000060abeb98b3b95a0c5786261c1ab830e3d2383f9e"
          ],
          "data": "0xffffffffffffffffffffffffffffffffffffffffffffffffffffffffffffffff",
          "blockHash": "0xf0ed9c1f1c81d40b4743114d670e4df909103b1689a4bd8fae3cbef882f97fd5",
          "blockNumber": "0x715d90",
          "transactionHash": "0x76a471af7aa09b23e2e5cce00ff54235661726e757d7c72a7a1f7cabe08a8ea0",
          "transactionIndex": "0x2",
          "logIndex": "0x1",
          "removed": false
        }
      ],
      "status": "0x1",
      "logsBloom": "0x40000000000000000000000000000010000000000000000000000000000000000000000000200000000000000000000000000000000000000000000000200000000000000000000000000000000000000000000000000000000000000000000000000000000000000200000000000000000000000000000000000000000000000000000000000000000000000000400000000000000000000000000000000004020000000040000000000000000000000000000000000000000000200000000000000000000000000000000000000000000000000000000000000000000000000010000000000000000000040000000000000000000000000000000000000000",
      "type": "0x2",
      "effectiveGasPrice": "0xb5c8a363"
    }
  ],
  "libraries": [],
  "pending": [],
  "returns": {},
  "timestamp": 1710627332,
  "chain": 84532,
  "commit": "e6d8283"
}