{
  "transactions": [
    {
      "hash": "0xef392e56ae9faebebbabf1c477e9af320d87fdc4e3df84206295d42d0c590ca5",
      "transactionType": "CALL",
      "contractName": null,
      "contractAddress": "0xd962b16F4ec712D705106674E944B04614F077be",
      "function": "initialize((address,address,uint24,int24,address),uint160,bytes)",
      "arguments": [
        "(0x213F93ce6aAe07E80D58Bd9dcC058FA8CD86B2e7, 0xf48d21cB71EFf1a1a457796f5Fe2c9d9DedFB574, 4000, 10, 0x02048dd9ba60F39df0f74F115C9B31B2652E7C4d)",
        "79228162514264337593543950336",
        "0x0000000000000000000000000000000000000000000000000000000065f5f326"
      ],
      "transaction": {
        "type": "0x02",
        "from": "0xe65fb27fb655f854afc66fa9fbf64f0299499a9f",
        "to": "0xd962b16f4ec712d705106674e944b04614f077be",
        "gas": "0x12c6c",
        "value": "0x0",
        "data": "0x695c5bf5000000000000000000000000213f93ce6aae07e80d58bd9dcc058fa8cd86b2e7000000000000000000000000f48d21cb71eff1a1a457796f5fe2c9d9dedfb5740000000000000000000000000000000000000000000000000000000000000fa0000000000000000000000000000000000000000000000000000000000000000a00000000000000000000000002048dd9ba60f39df0f74f115c9b31b2652e7c4d000000000000000000000000000000000000000100000000000000000000000000000000000000000000000000000000000000000000000000000000000000e000000000000000000000000000000000000000000000000000000000000000200000000000000000000000000000000000000000000000000000000065f5f326",
        "nonce": "0x6",
        "accessList": []
      },
      "additionalContracts": [],
      "isFixedGasLimit": false
    }
  ],
  "receipts": [
    {
      "transactionHash": "0xef392e56ae9faebebbabf1c477e9af320d87fdc4e3df84206295d42d0c590ca5",
      "transactionIndex": "0x1",
      "blockHash": "0x5d7f800faf9fb2cc642632bb7d04885494d105ad020050b26654f10f98545f1b",
      "blockNumber": "0x714a28",
      "from": "0xE65FB27FB655F854AfC66fA9fBF64f0299499A9F",
      "to": "0xd962b16F4ec712D705106674E944B04614F077be",
      "cumulativeGasUsed": "0x184e3",
      "gasUsed": "0xd980",
      "contractAddress": null,
      "logs": [
        {
          "address": "0xd962b16F4ec712D705106674E944B04614F077be",
          "topics": [
            "0x3fd553db44f207b1f41348cfc4d251860814af9eadc470e8e7895e4d120511f4",
            "0xe0ef11eb1ed78f19f4fb5a0b81b2350155f9cc8a1447184bfed2d4bccd6a3ab4",
            "0x000000000000000000000000213f93ce6aae07e80d58bd9dcc058fa8cd86b2e7",
            "0x000000000000000000000000f48d21cb71eff1a1a457796f5fe2c9d9dedfb574"
          ],
          "data": "0x0000000000000000000000000000000000000000000000000000000000000fa0000000000000000000000000000000000000000000000000000000000000000a00000000000000000000000002048dd9ba60f39df0f74f115c9b31b2652e7c4d",
          "blockHash": "0x5d7f800faf9fb2cc642632bb7d04885494d105ad020050b26654f10f98545f1b",
          "blockNumber": "0x714a28",
          "transactionHash": "0xef392e56ae9faebebbabf1c477e9af320d87fdc4e3df84206295d42d0c590ca5",
          "transactionIndex": "0x1",
          "logIndex": "0x0",
          "removed": false
        }
      ],
      "status": "0x1",
      "logsBloom": "0x00000000000000000000000000000000000000008000000000000000000000000000000000000000000000000000000004000010000000000000000000000000000000000000000000000000000020000000000004000000000000000400000000000080000000000000040000000000000000000000000000000000000000000000000000000000000000000000000000000000000000000000000000000000000000000000000000000000000000000000000000000000000000002100000000000000000000020000000000000000000000000000000000000000000000040000000000000000000000000000000000000020000002020000000000000000",
      "type": "0x2",
      "effectiveGasPrice": "0xb5d1bb6a"
    }
  ],
  "libraries": [],
  "pending": [],
  "returns": {},
  "timestamp": 1710617397,
  "chain": 84532,
  "commit": "911b99f"
}