{
  "transactions": [
    {
      "hash": "0x4f67a96589afe8100a07bd8545ed6fd9bfcc4b1b7d487e0b946fe748451ce8af",
      "transactionType": "CALL",
      "contractName": null,
      "contractAddress": "0xd962b16F4ec712D705106674E944B04614F077be",
      "function": "initialize((address,address,uint24,int24,address),uint160,bytes)",
      "arguments": [
        "(0x06B2B98dB45481dd0878Bb07979Ba0A79b60A49e, 0x56ba6046cc51b859DAA4Eb6D445DE99C5b1E4391, 4000, 10, 0x020A5bE4a8BCbd885fEC6122e3beE4e8F3Baaaa2)",
        "79228162514264337593543950336",
        "0x0000000000000000000000000000000000000000000000000000000065f5fdc6"
      ],
      "transaction": {
        "type": "0x02",
        "from": "0xe65fb27fb655f854afc66fa9fbf64f0299499a9f",
        "to": "0xd962b16f4ec712d705106674e944b04614f077be",
        "gas": "0x12c6c",
        "value": "0x0",
        "data": "0x695c5bf500000000000000000000000006b2b98db45481dd0878bb07979ba0a79b60a49e00000000000000000000000056ba6046cc51b859daa4eb6d445de99c5b1e43910000000000000000000000000000000000000000000000000000000000000fa0000000000000000000000000000000000000000000000000000000000000000a000000000000000000000000020a5be4a8bcbd885fec6122e3bee4e8f3baaaa2000000000000000000000000000000000000000100000000000000000000000000000000000000000000000000000000000000000000000000000000000000e000000000000000000000000000000000000000000000000000000000000000200000000000000000000000000000000000000000000000000000000065f5fdc6",
        "nonce": "0xd",
        "accessList": []
      },
      "additionalContracts": [],
      "isFixedGasLimit": false
    }
  ],
  "receipts": [
    {
      "transactionHash": "0x4f67a96589afe8100a07bd8545ed6fd9bfcc4b1b7d487e0b946fe748451ce8af",
      "transactionIndex": "0x1",
      "blockHash": "0x4ceb1ce1609b314f440749dad282a6723771e9b62542487b542af0eccea648b3",
      "blockNumber": "0x714f78",
      "from": "0xE65FB27FB655F854AfC66fA9fBF64f0299499A9F",
      "to": "0xd962b16F4ec712D705106674E944B04614F077be",
      "cumulativeGasUsed": "0x184e3",
      "gasUsed": "0xd980",
      "contractAddress": null,
      "logs": [
        {
          "address": "0xd962b16F4ec712D705106674E944B04614F077be",
          "topics": [
            "0x3fd553db44f207b1f41348cfc4d251860814af9eadc470e8e7895e4d120511f4",
            "0x1f32f90bd0a140a181894488cabfff1dfbf7d962654760ed230fbba740ee369d",
            "0x00000000000000000000000006b2b98db45481dd0878bb07979ba0a79b60a49e",
            "0x00000000000000000000000056ba6046cc51b859daa4eb6d445de99c5b1e4391"
          ],
          "data": "0x0000000000000000000000000000000000000000000000000000000000000fa0000000000000000000000000000000000000000000000000000000000000000a000000000000000000000000020a5be4a8bcbd885fec6122e3bee4e8f3baaaa2",
          "blockHash": "0x4ceb1ce1609b314f440749dad282a6723771e9b62542487b542af0eccea648b3",
          "blockNumber": "0x714f78",
          "transactionHash": "0x4f67a96589afe8100a07bd8545ed6fd9bfcc4b1b7d487e0b946fe748451ce8af",
          "transactionIndex": "0x1",
          "logIndex": "0x0",
          "removed": false
        }
      ],
      "status": "0x1",
      "logsBloom": "0x0000000000000000000000000000000000000000000000000000000000000000000000000000000000000000000000000000000000000000000000000000000000000000000004000000000000002000000000000000000000000000000000000000000000000000000004000000000000000000000000100000000000000000000000000000000000000000000000000000000000000000000000000000000000000000000000000001000000000001000000000000000000001000200000000000000000000000004000000000000000000000000000000000000000c00004000000000000000000000000000000000000002000000a000000000000000000",
      "type": "0x2",
      "effectiveGasPrice": "0xb5cf204b"
    }
  ],
  "libraries": [],
  "pending": [],
  "returns": {},
  "timestamp": 1710620117,
  "chain": 84532,
  "commit": "911b99f"
}