{
  "transactions": [
    {
      "hash": "0xb4709fbd2b8bcd4ae33d3dab69ac8f32ff958899860e1c1051194c46ed536a93",
      "transactionType": "CALL",
      "contractName": null,
      "contractAddress": "0x64255ed21366DB43d89736EE48928b890A84E2Cb",
      "function": "initialize((address,address,uint24,int24,address),uint160,bytes)",
      "arguments": [
        "(0x213F93ce6aAe07E80D58Bd9dcC058FA8CD86B2e7, 0xC31760dCAC561036F5Ff5f1D1c15DBb43df20915, 4000, 10, 0x02031A959C7d97Dc55A10A247E54b66a9b318E13)",
        "79228162514264337593543950336",
        "0x0000000000000000000000000000000000000000000000000000000065f5d8b0"
      ],
      "transaction": {
        "type": "0x02",
        "from": "0xe65fb27fb655f854afc66fa9fbf64f0299499a9f",
        "to": "0x64255ed21366db43d89736ee48928b890a84e2cb",
        "gas": "0x140f0",
        "value": "0x0",
        "data": "0x695c5bf5000000000000000000000000213f93ce6aae07e80d58bd9dcc058fa8cd86b2e7000000000000000000000000c31760dcac561036f5ff5f1d1c15dbb43df209150000000000000000000000000000000000000000000000000000000000000fa0000000000000000000000000000000000000000000000000000000000000000a00000000000000000000000002031a959c7d97dc55a10a247e54b66a9b318e13000000000000000000000000000000000000000100000000000000000000000000000000000000000000000000000000000000000000000000000000000000e000000000000000000000000000000000000000000000000000000000000000200000000000000000000000000000000000000000000000000000000065f5d8b0",
        "nonce": "0x3",
        "accessList": []
      },
      "additionalContracts": [],
      "isFixedGasLimit": false
    }
  ],
  "receipts": [
    {
      "transactionHash": "0xb4709fbd2b8bcd4ae33d3dab69ac8f32ff958899860e1c1051194c46ed536a93",
      "transactionIndex": "0x31",
      "blockHash": "0x796dae724cb0c88a5bbd521f0addd2ca107a601a42e7c5e0c3ead4c4d6ab6517",
      "blockNumber": "0x53e908",
      "from": "0xE65FB27FB655F854AfC66fA9fBF64f0299499A9F",
      "to": "0x64255ed21366DB43d89736EE48928b890A84E2Cb",
      "cumulativeGasUsed": "0x201c05",
      "gasUsed": "0xdb72",
      "contractAddress": null,
      "logs": [],
      "status": "0x1",
      "logsBloom": "0x00000000000000000000000000000000000000000000000000000000000000000000000000000000000000000000000000000000000000000000000000000000000000000000000000000000000000000000000000000000000000000000000000000000000000000000000000000000000000000000000000000000000000000000000000000000000000000000000000000000000000000000000000000000000000000000000000000000000000000000000000000000000000000000000000000000000000000000000000000000000000000000000000000000000000000000000000000000000000000000000000000000000000000000000000000000",
      "type": "0x2",
      "effectiveGasPrice": "0x40e8a1be1"
    }
  ],
  "libraries": [],
  "pending": [],
  "returns": {},
  "timestamp": 1710610635,
  "chain": 11155111,
  "commit": "911b99f"
}