{
  "transactions": [
    {
      "hash": "0x555cb0031385979c86232b67b96d26158208885f4f9d204839ba35a3da01103b",
      "transactionType": "CALL",
      "contractName": null,
      "contractAddress": "0x0844B1EC6ee5E2F575Aa55724057721b9cd30e80",
      "function": "approve(address,uint256)",
      "arguments": [
        "0x60AbEb98b3b95A0c5786261c1Ab830e3D2383F9e",
        "115792089237316195423570985008687907853269984665640564039457584007913129639935"
      ],
      "transaction": {
        "type": "0x02",
        "from": "0xe65fb27fb655f854afc66fa9fbf64f0299499a9f",
        "to": "0x0844b1ec6ee5e2f575aa55724057721b9cd30e80",
        "gas": "0x98fb",
        "value": "0x0",
        "data": "0x095ea7b300000000000000000000000060abeb98b3b95a0c5786261c1ab830e3d2383f9effffffffffffffffffffffffffffffffffffffffffffffffffffffffffffffff",
        "nonce": "0x2b",
        "accessList": []
      },
      "additionalContracts": [],
      "isFixedGasLimit": false
    },
    {
      "hash": "0x0e35dc50888e1080258250689a0d584f66e2cc2f93e95f509ea85e071974aefe",
      "transactionType": "CALL",
      "contractName": null,
      "contractAddress": "0x19544eafF5959f228D2d76dF1570B220121518A8",
      "function": "approve(address,uint256)",
      "arguments": [
        "0x60AbEb98b3b95A0c5786261c1Ab830e3D2383F9e",
        "115792089237316195423570985008687907853269984665640564039457584007913129639935"
      ],
      "transaction": {
        "type": "0x02",
        "from": "0xe65fb27fb655f854afc66fa9fbf64f0299499a9f",
        "to": "0x19544eaff5959f228d2d76df1570b220121518a8",
        "gas": "0x98fb",
        "value": "0x0",
        "data": "0x095ea7b300000000000000000000000060abeb98b3b95a0c5786261c1ab830e3d2383f9effffffffffffffffffffffffffffffffffffffffffffffffffffffffffffffff",
        "nonce": "0x2c",
        "accessList": []
      },
      "additionalContracts": [],
      "isFixedGasLimit": false
    },
    {
      "hash": "0x3158f9ef58577144bf48d0cf955feb2f5f7ea45937508eeb879bf67dd7fb3154",
      "transactionType": "CALL",
      "contractName": null,
      "contractAddress": "0x60AbEb98b3b95A0c5786261c1Ab830e3D2383F9e",
      "function": "swap((address,address,uint24,int24,address),(bool,int256,uint160),(bool,bool,bool),bytes)",
      "arguments": [
        "(0x0844B1EC6ee5E2F575Aa55724057721b9cd30e80, 0x19544eafF5959f228D2d76dF1570B220121518A8, 4000, 10, 0x020664b9f354c415a7D01dAa483CF78aFe02F66E)",
        "(true, 5000000000000000000, 4295128740)",
        "(true, true, false)",
        "0x0000000000000000000000000000000000000000000000004563918244f400000000000000000000000000000000000000000000000000000000000000715ef00000000000000000000000000000000000000000000000000000000000000001000000000000000000000000000000000000000000000000000000000000005d000000000000000000000000000000000000000000000000000000000000001b864652d7d6de37576b91b46c1ad1fe6367da93adeca415431b822ce11bd66b4b3c11c24940d700f3ab296839a48527dd650a9667261771788fb496e0ad175115"
      ],
      "transaction": {
        "type": "0x02",
        "from": "0xe65fb27fb655f854afc66fa9fbf64f0299499a9f",
        "to": "0x60abeb98b3b95a0c5786261c1ab830e3d2383f9e",
        "gas": "0x3e92e",
        "value": "0x0",
        "data": "0x6646135b0000000000000000000000000844b1ec6ee5e2f575aa55724057721b9cd30e8000000000000000000000000019544eaff5959f228d2d76df1570b220121518a80000000000000000000000000000000000000000000000000000000000000fa0000000000000000000000000000000000000000000000000000000000000000a000000000000000000000000020664b9f354c415a7d01daa483cf78afe02f66e00000000000000000000000000000000000000000000000000000000000000010000000000000000000000000000000000000000000000004563918244f4000000000000000000000000000000000000000000000000000000000001000276a4000000000000000000000000000000000000000000000000000000000000000100000000000000000000000000000000000000000000000000000000000000010000000000000000000000000000000000000000000000000000000000000000000000000000000000000000000000000000000000000000000000000000018000000000000000000000000000000000000000000000000000000000000000e00000000000000000000000000000000000000000000000004563918244f400000000000000000000000000000000000000000000000000000000000000715ef00000000000000000000000000000000000000000000000000000000000000001000000000000000000000000000000000000000000000000000000000000005d000000000000000000000000000000000000000000000000000000000000001b864652d7d6de37576b91b46c1ad1fe6367da93adeca415431b822ce11bd66b4b3c11c24940d700f3ab296839a48527dd650a9667261771788fb496e0ad175115",
        "nonce": "0x2d",
        "accessList": []
      },
      "additionalContracts": [],
      "isFixedGasLimit": false
    }
  ],
  "receipts": [
    {
      "transactionHash": "0x555cb0031385979c86232b67b96d26158208885f4f9d204839ba35a3da01103b",
      "transactionIndex": "0x1",
      "blockHash": "0xfc8e5f3942856179e7b88b04dc6a042b61d7a193f9340650005ea1ecb459b893",
      "blockNumber": "0x715eb2",
      "from": "0xE65FB27FB655F854AfC66fA9fBF64f0299499A9F",
      "to": "0x0844B1EC6ee5E2F575Aa55724057721b9cd30e80",
      "cumulativeGasUsed": "0x113fe",
      "gasUsed": "0x689b",
      "contractAddress": null,
      "logs": [
        {
          "address": "0x0844B1EC6ee5E2F575Aa55724057721b9cd30e80",
          "topics": [
            "0x8c5be1e5ebec7d5bd14f71427d1e84f3dd0314c0f7b2291e5b200ac8c7c3b925",
            "0x000000000000000000000000e65fb27fb655f854afc66fa9fbf64f0299499a9f",
            "0x00000000000000000000000060abeb98b3b95a0c5786261c1ab830e3d2383f9e"
          ],
          "data": "0xffffffffffffffffffffffffffffffffffffffffffffffffffffffffffffffff",
          "blockHash": "0xfc8e5f3942856179e7b88b04dc6a042b61d7a193f9340650005ea1ecb459b893",
          "blockNumber": "0x715eb2",
          "transactionHash": "0x555cb0031385979c86232b67b96d26158208885f4f9d204839ba35a3da01103b",
          "transactionIndex": "0x1",
          "logIndex": "0x0",
          "removed": false
        }
      ],
      "status": "0x1",
      "logsBloom": "0x40000000000000000000000000000010000000000000000000000000000000000000000000200000000000000000000000400000000000000000000000200000000000000000000000000000000000000000000000000000000000000000000000000000000000000000000000000002000000000000000000000000000000000000000000000000000000000000400000000000000000000000000000000004020000000000000000000000000000000000000000000000000000000000000000000000000000000000000000000000004000000000000000000000000000000010000000000000000000040000000000000000000000000000000000000000",
      "type": "0x2",
      "effectiveGasPrice": "0xb589f4bb"
    },
    {
      "transactionHash": "0x0e35dc50888e1080258250689a0d584f66e2cc2f93e95f509ea85e071974aefe",
      "transactionIndex": "0x2",
      "blockHash": "0xfc8e5f3942856179e7b88b04dc6a042b61d7a193f9340650005ea1ecb459b893",
      "blockNumber": "0x715eb2",
      "from": "0xE65FB27FB655F854AfC66fA9fBF64f0299499A9F",
      "to": "0x19544eafF5959f228D2d76dF1570B220121518A8",
      "cumulativeGasUsed": "0x17c99",
      "gasUsed": "0x689b",
      "contractAddress": null,
      "logs": [
        {
          "address": "0x19544eafF5959f228D2d76dF1570B220121518A8",
          "topics": [
            "0x8c5be1e5ebec7d5bd14f71427d1e84f3dd0314c0f7b2291e5b200ac8c7c3b925",
            "0x000000000000000000000000e65fb27fb655f854afc66fa9fbf64f0299499a9f",
            "0x00000000000000000000000060abeb98b3b95a0c5786261c1ab830e3d2383f9e"
          ],
          "data": "0xffffffffffffffffffffffffffffffffffffffffffffffffffffffffffffffff",
          "blockHash": "0xfc8e5f3942856179e7b88b04dc6a042b61d7a193f9340650005ea1ecb459b893",
          "blockNumber": "0x715eb2",
          "transactionHash": "0x0e35dc50888e1080258250689a0d584f66e2cc2f93e95f509ea85e071974aefe",
          "transactionIndex": "0x2",
          "logIndex": "0x1",
          "removed": false
        }
      ],
      "status": "0x1",
      "logsBloom": "0x40000000000000000000000000000010000000000000000000000000000000000000000000200000000000000000000000000000000000000000000000200000000000000000000000000000000000000000000000000000000000000000000000000000000000000200000000000000000000000000000000000000000000000000000000000000000000000000400000000000000000000000000000000004020000000040000000000000000000000000000000000000000000200000000000000000000000000000000000000000000000000000000000000000000000000010000000000000000000040000000000000000000000000000000000000000",
      "type": "0x2",
      "effectiveGasPrice": "0xb589f4bb"
    },
    {
      "transactionHash": "0x3158f9ef58577144bf48d0cf955feb2f5f7ea45937508eeb879bf67dd7fb3154",
      "transactionIndex": "0x3",
      "blockHash": "0xfc8e5f3942856179e7b88b04dc6a042b61d7a193f9340650005ea1ecb459b893",
      "blockNumber": "0x715eb2",
      "from": "0xE65FB27FB655F854AfC66fA9fBF64f0299499A9F",
      "to": "0x60AbEb98b3b95A0c5786261c1Ab830e3D2383F9e",
      "cumulativeGasUsed": "0x45170",
      "gasUsed": "0x2d4d7",
      "contractAddress": null,
      "logs": [
        {
          "address": "0xd962b16F4ec712D705106674E944B04614F077be",
          "topics": [
            "0x40e9cecb9f5f1f1c5b9c97dec2917b7ee92e57ba5563708daca94dd84ad7112f",
            "0x19aa2b824a93fcae7f0b7f292aee9b86b81c3b3bc5c567011601d46c8f5a6810",
            "0x00000000000000000000000060abeb98b3b95a0c5786261c1ab830e3d2383f9e"
          ],
          "data": "0xffffffffffffffffffffffffffffffffffffffffffffffffba3a4ef128a0ed700000000000000000000000000000000000000000000000004563918244f400000000000000000000000000000000000000000000ffbe76c8b4395810624dd2f000000000000000000000000000000000000000000000021e19e0c9bab2400000ffffffffffffffffffffffffffffffffffffffffffffffffffffffffffffffeb0000000000000000000000000000000000000000000000000000000000000fa0",
          "blockHash": "0xfc8e5f3942856179e7b88b04dc6a042b61d7a193f9340650005ea1ecb459b893",
          "blockNumber": "0x715eb2",
          "transactionHash": "0x3158f9ef58577144bf48d0cf955feb2f5f7ea45937508eeb879bf67dd7fb3154",
          "transactionIndex": "0x3",
          "logIndex": "0x2",
          "removed": false
        },
        {
          "address": "0x0844B1EC6ee5E2F575Aa55724057721b9cd30e80",
          "topics": [
            "0xddf252ad1be2c89b69c2b068fc378daa952ba7f163c4a11628f55a4df523b3ef",
            "0x000000000000000000000000e65fb27fb655f854afc66fa9fbf64f0299499a9f",
            "0x000000000000000000000000d962b16f4ec712d705106674e944b04614f077be"
          ],
          "data": "0x00000000000000000000000000000000000000000000000045c5b10ed75f1290",
          "blockHash": "0xfc8e5f3942856179e7b88b04dc6a042b61d7a193f9340650005ea1ecb459b893",
          "blockNumber": "0x715eb2",
          "transactionHash": "0x3158f9ef58577144bf48d0cf955feb2f5f7ea45937508eeb879bf67dd7fb3154",
          "transactionIndex": "0x3",
          "logIndex": "0x3",
          "removed": false
        },
        {
          "address": "0x19544eafF5959f228D2d76dF1570B220121518A8",
          "topics": [
            "0xddf252ad1be2c89b69c2b068fc378daa952ba7f163c4a11628f55a4df523b3ef",
            "0x000000000000000000000000d962b16f4ec712d705106674e944b04614f077be",
            "0x000000000000000000000000e65fb27fb655f854afc66fa9fbf64f0299499a9f"
          ],
          "data": "0x0000000000000000000000000000000000000000000000004563918244f40000",
          "blockHash": "0xfc8e5f3942856179e7b88b04dc6a042b61d7a193f9340650005ea1ecb459b893",
          "blockNumber": "0x715eb2",
          "transactionHash": "0x3158f9ef58577144bf48d0cf955feb2f5f7ea45937508eeb879bf67dd7fb3154",
          "transactionIndex": "0x3",
          "logIndex": "0x4",
          "removed": false
        }
      ],
      "status": "0x1",
      "logsBloom": "0x40000000000000000000000000000010000000000020000000000000000000000000000000200000000000000000000000400000040000000000000000000000000000000000008000000008000000000000000000000020000000000000000000000000000000010200040000000002000000000000000000000018000000000000000000000000000000000000400000000000000000000000000000000004000000000040000010000000000000000000000000000000000000202000000000000002000000000000000000000000004000000000800000000000000000000000000000000000004000040000000000000020000000000000000000000000",
      "type": "0x2",
      "effectiveGasPrice": "0xb589f4bb"
    }
  ],
  "libraries": [],
  "pending": [],
  "returns": {},
  "timestamp": 1710627913,
  "chain": 84532,
  "commit": "e6d8283"
}