{
  "transactions": [
    {
      "hash": "0x2e4ee021dd0b74e63c5eecee64b26b7966758cb19f08a8fb186f355ba5c5d0d7",
      "transactionType": "CALL",
      "contractName": null,
      "contractAddress": "0x0844B1EC6ee5E2F575Aa55724057721b9cd30e80",
      "function": "approve(address,uint256)",
      "arguments": [
        "0x60AbEb98b3b95A0c5786261c1Ab830e3D2383F9e",
        "115792089237316195423570985008687907853269984665640564039457584007913129639935"
      ],
      "transaction": {
        "type": "0x02",
        "from": "0xe65fb27fb655f854afc66fa9fbf64f0299499a9f",
        "to": "0x0844b1ec6ee5e2f575aa55724057721b9cd30e80",
        "gas": "0x98fb",
        "value": "0x0",
        "data": "0x095ea7b300000000000000000000000060abeb98b3b95a0c5786261c1ab830e3d2383f9effffffffffffffffffffffffffffffffffffffffffffffffffffffffffffffff",
        "nonce": "0x28",
        "accessList": []
      },
      "additionalContracts": [],
      "isFixedGasLimit": false
    },
    {
      "hash": "0x45f6b723180d5374ba314189bc895b04d22b596e7b51e7674ced10fd783ba01d",
      "transactionType": "CALL",
      "contractName": null,
      "contractAddress": "0x19544eafF5959f228D2d76dF1570B220121518A8",
      "function": "approve(address,uint256)",
      "arguments": [
        "0x60AbEb98b3b95A0c5786261c1Ab830e3D2383F9e",
        "115792089237316195423570985008687907853269984665640564039457584007913129639935"
      ],
      "transaction": {
        "type": "0x02",
        "from": "0xe65fb27fb655f854afc66fa9fbf64f0299499a9f",
        "to": "0x19544eaff5959f228d2d76df1570b220121518a8",
        "gas": "0x98fb",
        "value": "0x0",
        "data": "0x095ea7b300000000000000000000000060abeb98b3b95a0c5786261c1ab830e3d2383f9effffffffffffffffffffffffffffffffffffffffffffffffffffffffffffffff",
        "nonce": "0x29",
        "accessList": []
      },
      "additionalContracts": [],
      "isFixedGasLimit": false
    },
    {
      "hash": "0x19bd247500648201ed0e507bf697ca208c4a8edd8e6b0b62d18449f87a6fccf4",
      "transactionType": "CALL",
      "contractName": null,
      "contractAddress": "0x60AbEb98b3b95A0c5786261c1Ab830e3D2383F9e",
      "function": "swap((address,address,uint24,int24,address),(bool,int256,uint160),(bool,bool,bool),bytes)",
      "arguments": [
        "(0x0844B1EC6ee5E2F575Aa55724057721b9cd30e80, 0x19544eafF5959f228D2d76dF1570B220121518A8, 4000, 10, 0x020664b9f354c415a7D01dAa483CF78aFe02F66E)",
        "(true, 5000000000000000000, 4295128740)",
        "(true, true, false)",
        "0x0000000000000000000000000000000000000000000000004563918244f400000000000000000000000000000000000000000000000000000000000000715e770000000000000000000000000000000000000000000000000000000000000001000000000000000000000000000000000000000000000000000000000000005d000000000000000000000000000000000000000000000000000000000000001b5e3e481cabd888f38208349423ed605192b93143189aa5fc707e08749504945c16520e89b560738b6743efcde4a8fdb3f00035114f07cee0494c99166b1cf5f7"
      ],
      "transaction": {
        "type": "0x02",
        "from": "0xe65fb27fb655f854afc66fa9fbf64f0299499a9f",
        "to": "0x60abeb98b3b95a0c5786261c1ab830e3d2383f9e",
        "gas": "0x3e92e",
        "value": "0x0",
        "data": "0x6646135b0000000000000000000000000844b1ec6ee5e2f575aa55724057721b9cd30e8000000000000000000000000019544eaff5959f228d2d76df1570b220121518a80000000000000000000000000000000000000000000000000000000000000fa0000000000000000000000000000000000000000000000000000000000000000a000000000000000000000000020664b9f354c415a7d01daa483cf78afe02f66e00000000000000000000000000000000000000000000000000000000000000010000000000000000000000000000000000000000000000004563918244f4000000000000000000000000000000000000000000000000000000000001000276a4000000000000000000000000000000000000000000000000000000000000000100000000000000000000000000000000000000000000000000000000000000010000000000000000000000000000000000000000000000000000000000000000000000000000000000000000000000000000000000000000000000000000018000000000000000000000000000000000000000000000000000000000000000e00000000000000000000000000000000000000000000000004563918244f400000000000000000000000000000000000000000000000000000000000000715e770000000000000000000000000000000000000000000000000000000000000001000000000000000000000000000000000000000000000000000000000000005d000000000000000000000000000000000000000000000000000000000000001b5e3e481cabd888f38208349423ed605192b93143189aa5fc707e08749504945c16520e89b560738b6743efcde4a8fdb3f00035114f07cee0494c99166b1cf5f7",
        "nonce": "0x2a",
        "accessList": []
      },
      "additionalContracts": [],
      "isFixedGasLimit": false
    }
  ],
  "receipts": [
    {
      "transactionHash": "0x2e4ee021dd0b74e63c5eecee64b26b7966758cb19f08a8fb186f355ba5c5d0d7",
      "transactionIndex": "0x1",
      "blockHash": "0xfea60381845bad5ced717c94c7cf73ef7db8707b38bdb5937fa94c73dccfdd7e",
      "blockNumber": "0x715e78",
      "from": "0xE65FB27FB655F854AfC66fA9fBF64f0299499A9F",
      "to": "0x0844B1EC6ee5E2F575Aa55724057721b9cd30e80",
      "cumulativeGasUsed": "0x13fb2",
      "gasUsed": "0x689b",
      "contractAddress": null,
      "logs": [
        {
          "address": "0x0844B1EC6ee5E2F575Aa55724057721b9cd30e80",
          "topics": [
            "0x8c5be1e5ebec7d5bd14f71427d1e84f3dd0314c0f7b2291e5b200ac8c7c3b925",
            "0x000000000000000000000000e65fb27fb655f854afc66fa9fbf64f0299499a9f",
            "0x00000000000000000000000060abeb98b3b95a0c5786261c1ab830e3d2383f9e"
          ],
          "data": "0xffffffffffffffffffffffffffffffffffffffffffffffffffffffffffffffff",
          "blockHash": "0xfea60381845bad5ced717c94c7cf73ef7db8707b38bdb5937fa94c73dccfdd7e",
          "blockNumber": "0x715e78",
          "transactionHash": "0x2e4ee021dd0b74e63c5eecee64b26b7966758cb19f08a8fb186f355ba5c5d0d7",
          "transactionIndex": "0x1",
          "logIndex": "0x0",
          "removed": false
        }
      ],
      "status": "0x1",
      "logsBloom": "0x40000000000000000000000000000010000000000000000000000000000000000000000000200000000000000000000000400000000000000000000000200000000000000000000000000000000000000000000000000000000000000000000000000000000000000000000000000002000000000000000000000000000000000000000000000000000000000000400000000000000000000000000000000004020000000000000000000000000000000000000000000000000000000000000000000000000000000000000000000000004000000000000000000000000000000010000000000000000000040000000000000000000000000000000000000000",
      "type": "0x2",
      "effectiveGasPrice": "0xb5ce5075"
    },
    {
      "transactionHash": "0x45f6b723180d5374ba314189bc895b04d22b596e7b51e7674ced10fd783ba01d",
      "transactionIndex": "0x2",
      "blockHash": "0xfea60381845bad5ced717c94c7cf73ef7db8707b38bdb5937fa94c73dccfdd7e",
      "blockNumber": "0x715e78",
      "from": "0xE65FB27FB655F854AfC66fA9fBF64f0299499A9F",
      "to": "0x19544eafF5959f228D2d76dF1570B220121518A8",
      "cumulativeGasUsed": "0x1a84d",
      "gasUsed": "0x689b",
      "contractAddress": null,
      "logs": [
        {
          "address": "0x19544eafF5959f228D2d76dF1570B220121518A8",
          "topics": [
            "0x8c5be1e5ebec7d5bd14f71427d1e84f3dd0314c0f7b2291e5b200ac8c7c3b925",
            "0x000000000000000000000000e65fb27fb655f854afc66fa9fbf64f0299499a9f",
            "0x00000000000000000000000060abeb98b3b95a0c5786261c1ab830e3d2383f9e"
          ],
          "data": "0xffffffffffffffffffffffffffffffffffffffffffffffffffffffffffffffff",
          "blockHash": "0xfea60381845bad5ced717c94c7cf73ef7db8707b38bdb5937fa94c73dccfdd7e",
          "blockNumber": "0x715e78",
          "transactionHash": "0x45f6b723180d5374ba314189bc895b04d22b596e7b51e7674ced10fd783ba01d",
          "transactionIndex": "0x2",
          "logIndex": "0x1",
          "removed": false
        }
      ],
      "status": "0x1",
      "logsBloom": "0x40000000000000000000000000000010000000000000000000000000000000000000000000200000000000000000000000000000000000000000000000200000000000000000000000000000000000000000000000000000000000000000000000000000000000000200000000000000000000000000000000000000000000000000000000000000000000000000400000000000000000000000000000000004020000000040000000000000000000000000000000000000000000200000000000000000000000000000000000000000000000000000000000000000000000000010000000000000000000040000000000000000000000000000000000000000",
      "type": "0x2",
      "effectiveGasPrice": "0xb5ce5075"
    }
  ],
  "libraries": [],
  "pending": [],
  "returns": {},
  "timestamp": 1710627798,
  "chain": 84532,
  "commit": "e6d8283"
}