{
  "transactions": [
    {
      "hash": "0x6dd19f98bbc6c8ae1f96c78e324c25d3e26f2126930aadc497d2ef8bd816baac",
      "transactionType": "CALL",
      "contractName": null,
      "contractAddress": "0x0844B1EC6ee5E2F575Aa55724057721b9cd30e80",
      "function": "approve(address,uint256)",
      "arguments": [
        "0x60AbEb98b3b95A0c5786261c1Ab830e3D2383F9e",
        "115792089237316195423570985008687907853269984665640564039457584007913129639935"
      ],
      "transaction": {
        "type": "0x02",
        "from": "0xe65fb27fb655f854afc66fa9fbf64f0299499a9f",
        "to": "0x0844b1ec6ee5e2f575aa55724057721b9cd30e80",
        "gas": "0x98fb",
        "value": "0x0",
        "data": "0x095ea7b300000000000000000000000060abeb98b3b95a0c5786261c1ab830e3d2383f9effffffffffffffffffffffffffffffffffffffffffffffffffffffffffffffff",
        "nonce": "0x2e",
        "accessList": []
      },
      "additionalContracts": [],
      "isFixedGasLimit": false
    },
    {
      "hash": "0x98cf9ca7d135913999cd2379fae6bf83b5f39b90a3b99c6d9cd67cfee8caa615",
      "transactionType": "CALL",
      "contractName": null,
      "contractAddress": "0x19544eafF5959f228D2d76dF1570B220121518A8",
      "function": "approve(address,uint256)",
      "arguments": [
        "0x60AbEb98b3b95A0c5786261c1Ab830e3D2383F9e",
        "115792089237316195423570985008687907853269984665640564039457584007913129639935"
      ],
      "transaction": {
        "type": "0x02",
        "from": "0xe65fb27fb655f854afc66fa9fbf64f0299499a9f",
        "to": "0x19544eaff5959f228d2d76df1570b220121518a8",
        "gas": "0x98fb",
        "value": "0x0",
        "data": "0x095ea7b300000000000000000000000060abeb98b3b95a0c5786261c1ab830e3d2383f9effffffffffffffffffffffffffffffffffffffffffffffffffffffffffffffff",
        "nonce": "0x2f",
        "accessList": []
      },
      "additionalContracts": [],
      "isFixedGasLimit": false
    },
    {
      "hash": "0xce9f960e947e8a33fc41222a7f3c724003a1861b11ee15cda092523b13e457f7",
      "transactionType": "CALL",
      "contractName": "PoolSwapTest",
      "contractAddress": "0x60AbEb98b3b95A0c5786261c1Ab830e3D2383F9e",
      "function": "swap((address,address,uint24,int24,address),(bool,int256,uint160),(bool,bool,bool),bytes)",
      "arguments": [
        "(0x0844B1EC6ee5E2F575Aa55724057721b9cd30e80, 0x19544eafF5959f228D2d76dF1570B220121518A8, 4000, 10, 0x020664b9f354c415a7D01dAa483CF78aFe02F66E)",
        "(true, 5000000000000000000, 4295128740)",
        "(true, true, false)",
        "0x0000000000000000000000000000000000000000000000004563918244f400000000000000000000000000000000000000000000000000000000000000715f290000000000000000000000000000000000000000000000000000000000000002000000000000000000000000000000000000000000000000000000000000005d000000000000000000000000000000000000000000000000000000000000001b14bd27dc052704fabd08ff3310381a3c122f0908d002f84fa67a215788bf48cc67471375332fa2db543ee434ade8b4b5b64a1f8a9a3a9ffaa6b54b452b7e44ef"
      ],
      "transaction": {
        "type": "0x02",
        "from": "0xe65fb27fb655f854afc66fa9fbf64f0299499a9f",
        "to": "0x60abeb98b3b95a0c5786261c1ab830e3d2383f9e",
        "gas": "0x3e965",
        "value": "0x0",
        "data": "0x6646135b0000000000000000000000000844b1ec6ee5e2f575aa55724057721b9cd30e8000000000000000000000000019544eaff5959f228d2d76df1570b220121518a80000000000000000000000000000000000000000000000000000000000000fa0000000000000000000000000000000000000000000000000000000000000000a000000000000000000000000020664b9f354c415a7d01daa483cf78afe02f66e00000000000000000000000000000000000000000000000000000000000000010000000000000000000000000000000000000000000000004563918244f4000000000000000000000000000000000000000000000000000000000001000276a4000000000000000000000000000000000000000000000000000000000000000100000000000000000000000000000000000000000000000000000000000000010000000000000000000000000000000000000000000000000000000000000000000000000000000000000000000000000000000000000000000000000000018000000000000000000000000000000000000000000000000000000000000000e00000000000000000000000000000000000000000000000004563918244f400000000000000000000000000000000000000000000000000000000000000715f290000000000000000000000000000000000000000000000000000000000000002000000000000000000000000000000000000000000000000000000000000005d000000000000000000000000000000000000000000000000000000000000001b14bd27dc052704fabd08ff3310381a3c122f0908d002f84fa67a215788bf48cc67471375332fa2db543ee434ade8b4b5b64a1f8a9a3a9ffaa6b54b452b7e44ef",
        "nonce": "0x30",
        "accessList": []
      },
      "additionalContracts": [],
      "isFixedGasLimit": false
    }
  ],
  "receipts": [
    {
      "transactionHash": "0x6dd19f98bbc6c8ae1f96c78e324c25d3e26f2126930aadc497d2ef8bd816baac",
      "transactionIndex": "0x1",
      "blockHash": "0xd6f0b5af79d18f3924415eb8afd3e8b45999d7f4cab88ab50c0d2c7d33327895",
      "blockNumber": "0x715ecb",
      "from": "0xE65FB27FB655F854AfC66fA9fBF64f0299499A9F",
      "to": "0x0844B1EC6ee5E2F575Aa55724057721b9cd30e80",
      "cumulativeGasUsed": "0x113fe",
      "gasUsed": "0x689b",
      "contractAddress": null,
      "logs": [
        {
          "address": "0x0844B1EC6ee5E2F575Aa55724057721b9cd30e80",
          "topics": [
            "0x8c5be1e5ebec7d5bd14f71427d1e84f3dd0314c0f7b2291e5b200ac8c7c3b925",
            "0x000000000000000000000000e65fb27fb655f854afc66fa9fbf64f0299499a9f",
            "0x00000000000000000000000060abeb98b3b95a0c5786261c1ab830e3d2383f9e"
          ],
          "data": "0xffffffffffffffffffffffffffffffffffffffffffffffffffffffffffffffff",
          "blockHash": "0xd6f0b5af79d18f3924415eb8afd3e8b45999d7f4cab88ab50c0d2c7d33327895",
          "blockNumber": "0x715ecb",
          "transactionHash": "0x6dd19f98bbc6c8ae1f96c78e324c25d3e26f2126930aadc497d2ef8bd816baac",
          "transactionIndex": "0x1",
          "logIndex": "0x0",
          "removed": false
        }
      ],
      "status": "0x1",
      "logsBloom": "0x40000000000000000000000000000010000000000000000000000000000000000000000000200000000000000000000000400000000000000000000000200000000000000000000000000000000000000000000000000000000000000000000000000000000000000000000000000002000000000000000000000000000000000000000000000000000000000000400000000000000000000000000000000004020000000000000000000000000000000000000000000000000000000000000000000000000000000000000000000000004000000000000000000000000000000010000000000000000000040000000000000000000000000000000000000000",
      "type": "0x2",
      "effectiveGasPrice": "0xb5ad2a83"
    },
    {
      "transactionHash": "0x98cf9ca7d135913999cd2379fae6bf83b5f39b90a3b99c6d9cd67cfee8caa615",
      "transactionIndex": "0x2",
      "blockHash": "0xd6f0b5af79d18f3924415eb8afd3e8b45999d7f4cab88ab50c0d2c7d33327895",
      "blockNumber": "0x715ecb",
      "from": "0xE65FB27FB655F854AfC66fA9fBF64f0299499A9F",
      "to": "0x19544eafF5959f228D2d76dF1570B220121518A8",
      "cumulativeGasUsed": "0x17c99",
      "gasUsed": "0x689b",
      "contractAddress": null,
      "logs": [
        {
          "address": "0x19544eafF5959f228D2d76dF1570B220121518A8",
          "topics": [
            "0x8c5be1e5ebec7d5bd14f71427d1e84f3dd0314c0f7b2291e5b200ac8c7c3b925",
            "0x000000000000000000000000e65fb27fb655f854afc66fa9fbf64f0299499a9f",
            "0x00000000000000000000000060abeb98b3b95a0c5786261c1ab830e3d2383f9e"
          ],
          "data": "0xffffffffffffffffffffffffffffffffffffffffffffffffffffffffffffffff",
          "blockHash": "0xd6f0b5af79d18f3924415eb8afd3e8b45999d7f4cab88ab50c0d2c7d33327895",
          "blockNumber": "0x715ecb",
          "transactionHash": "0x98cf9ca7d135913999cd2379fae6bf83b5f39b90a3b99c6d9cd67cfee8caa615",
          "transactionIndex": "0x2",
          "logIndex": "0x1",
          "removed": false
        }
      ],
      "status": "0x1",
      "logsBloom": "0x40000000000000000000000000000010000000000000000000000000000000000000000000200000000000000000000000000000000000000000000000200000000000000000000000000000000000000000000000000000000000000000000000000000000000000200000000000000000000000000000000000000000000000000000000000000000000000000400000000000000000000000000000000004020000000040000000000000000000000000000000000000000000200000000000000000000000000000000000000000000000000000000000000000000000000010000000000000000000040000000000000000000000000000000000000000",
      "type": "0x2",
      "effectiveGasPrice": "0xb5ad2a83"
    },
    {
      "transactionHash": "0xce9f960e947e8a33fc41222a7f3c724003a1861b11ee15cda092523b13e457f7",
      "transactionIndex": "0x3",
      "blockHash": "0xd6f0b5af79d18f3924415eb8afd3e8b45999d7f4cab88ab50c0d2c7d33327895",
      "blockNumber": "0x715ecb",
      "from": "0xE65FB27FB655F854AfC66fA9fBF64f0299499A9F",
      "to": "0x60AbEb98b3b95A0c5786261c1Ab830e3D2383F9e",
      "cumulativeGasUsed": "0x45198",
      "gasUsed": "0x2d4ff",
      "contractAddress": null,
      "logs": [
        {
          "address": "0xd962b16F4ec712D705106674E944B04614F077be",
          "topics": [
            "0x40e9cecb9f5f1f1c5b9c97dec2917b7ee92e57ba5563708daca94dd84ad7112f",
            "0x19aa2b824a93fcae7f0b7f292aee9b86b81c3b3bc5c567011601d46c8f5a6810",
            "0x00000000000000000000000060abeb98b3b95a0c5786261c1ab830e3d2383f9e"
          ],
          "data": "0xffffffffffffffffffffffffffffffffffffffffffffffffba286b7ad2862b140000000000000000000000000000000000000000000000004563918244f400000000000000000000000000000000000000000000ff9db22d0e5604189374bc6800000000000000000000000000000000000000000000021e19e0c9bab2400000ffffffffffffffffffffffffffffffffffffffffffffffffffffffffffffffe10000000000000000000000000000000000000000000000000000000000000fa0",
          "blockHash": "0xd6f0b5af79d18f3924415eb8afd3e8b45999d7f4cab88ab50c0d2c7d33327895",
          "blockNumber": "0x715ecb",
          "transactionHash": "0xce9f960e947e8a33fc41222a7f3c724003a1861b11ee15cda092523b13e457f7",
          "transactionIndex": "0x3",
          "logIndex": "0x2",
          "removed": false
        },
        {
          "address": "0x0844B1EC6ee5E2F575Aa55724057721b9cd30e80",
          "topics": [
            "0xddf252ad1be2c89b69c2b068fc378daa952ba7f163c4a11628f55a4df523b3ef",
            "0x000000000000000000000000e65fb27fb655f854afc66fa9fbf64f0299499a9f",
            "0x000000000000000000000000d962b16f4ec712d705106674e944b04614f077be"
          ],
          "data": "0x00000000000000000000000000000000000000000000000045d794852d79d4ec",
          "blockHash": "0xd6f0b5af79d18f3924415eb8afd3e8b45999d7f4cab88ab50c0d2c7d33327895",
          "blockNumber": "0x715ecb",
          "transactionHash": "0xce9f960e947e8a33fc41222a7f3c724003a1861b11ee15cda092523b13e457f7",
          "transactionIndex": "0x3",
          "logIndex": "0x3",
          "removed": false
        },
        {
          "address": "0x19544eafF5959f228D2d76dF1570B220121518A8",
          "topics": [
            "0xddf252ad1be2c89b69c2b068fc378daa952ba7f163c4a11628f55a4df523b3ef",
            "0x000000000000000000000000d962b16f4ec712d705106674e944b04614f077be",
            "0x000000000000000000000000e65fb27fb655f854afc66fa9fbf64f0299499a9f"
          ],
          "data": "0x0000000000000000000000000000000000000000000000004563918244f40000",
          "blockHash": "0xd6f0b5af79d18f3924415eb8afd3e8b45999d7f4cab88ab50c0d2c7d33327895",
          "blockNumber": "0x715ecb",
          "transactionHash": "0xce9f960e947e8a33fc41222a7f3c724003a1861b11ee15cda092523b13e457f7",
          "transactionIndex": "0x3",
          "logIndex": "0x4",
          "removed": false
        }
      ],
      "status": "0x1",
      "logsBloom": "0x40000000000000000000000000000010000000000020000000000000000000000000000000200000000000000000000000400000040000000000000000000000000000000000008000000008000000000000000000000020000000000000000000000000000000010200040000000002000000000000000000000018000000000000000000000000000000000000400000000000000000000000000000000004000000000040000010000000000000000000000000000000000000202000000000000002000000000000000000000000004000000000800000000000000000000000000000000000004000040000000000000020000000000000000000000000",
      "type": "0x2",
      "effectiveGasPrice": "0xb5ad2a83"
    }
  ],
  "libraries": [],
  "pending": [],
  "returns": {},
  "timestamp": 1710627963,
  "chain": 84532,
  "commit": "e6d8283"
}