{
  "transactions": [
    {
      "hash": "0xbcb0afa54f71b7c55a0148a2b9a59b230b082cc481fcf18f809a47664a29031e",
      "transactionType": "CALL",
      "contractName": null,
      "contractAddress": "0x06B2B98dB45481dd0878Bb07979Ba0A79b60A49e",
      "function": "approve(address,uint256)",
      "arguments": [
        "0x60AbEb98b3b95A0c5786261c1Ab830e3D2383F9e",
        "115792089237316195423570985008687907853269984665640564039457584007913129639935"
      ],
      "transaction": {
        "type": "0x02",
        "from": "0xe65fb27fb655f854afc66fa9fbf64f0299499a9f",
        "to": "0x06b2b98db45481dd0878bb07979ba0a79b60a49e",
        "gas": "0xfbda",
        "value": "0x0",
        "data": "0x095ea7b300000000000000000000000060abeb98b3b95a0c5786261c1ab830e3d2383f9effffffffffffffffffffffffffffffffffffffffffffffffffffffffffffffff",
        "nonce": "0x11",
        "accessList": []
      },
      "additionalContracts": [],
      "isFixedGasLimit": false
    },
    {
      "hash": "0xedbacb3f235352f769f2f19716fa928692624f83b5ca94ea0f9e6b09a6977722",
      "transactionType": "CALL",
      "contractName": null,
      "contractAddress": "0x56ba6046cc51b859DAA4Eb6D445DE99C5b1E4391",
      "function": "approve(address,uint256)",
      "arguments": [
        "0x60AbEb98b3b95A0c5786261c1Ab830e3D2383F9e",
        "115792089237316195423570985008687907853269984665640564039457584007913129639935"
      ],
      "transaction": {
        "type": "0x02",
        "from": "0xe65fb27fb655f854afc66fa9fbf64f0299499a9f",
        "to": "0x56ba6046cc51b859daa4eb6d445de99c5b1e4391",
        "gas": "0xfbda",
        "value": "0x0",
        "data": "0x095ea7b300000000000000000000000060abeb98b3b95a0c5786261c1ab830e3d2383f9effffffffffffffffffffffffffffffffffffffffffffffffffffffffffffffff",
        "nonce": "0x12",
        "accessList": []
      },
      "additionalContracts": [],
      "isFixedGasLimit": false
    },
    {
      "hash": "0x680bc8369ad7c9e5241169bdbb379f37f53f0906c19940bff1b172f8e723a963",
      "transactionType": "CALL",
      "contractName": null,
      "contractAddress": "0x60AbEb98b3b95A0c5786261c1Ab830e3D2383F9e",
      "function": "swap((address,address,uint24,int24,address),(bool,int256,uint160),(bool,bool,bool),bytes)",
      "arguments": [
        "(0x06B2B98dB45481dd0878Bb07979Ba0A79b60A49e, 0x56ba6046cc51b859DAA4Eb6D445DE99C5b1E4391, 4000, 10, 0x020A5bE4a8BCbd885fEC6122e3beE4e8F3Baaaa2)",
        "(true, 5000000000000000000, 4295128740)",
        "(true, true, false)",
        "0x0000000000000000000000000000000000000000000000004563918244f4000000000000000000000000000000000000000000000000000000000000007155450000000000000000000000000000000000000000000000000000000000000000000000000000000000000000000000000000000000000000000000000000005d000000000000000000000000000000000000000000000000000000000000001c5d12ce05347c320f8954326fab5104399349b84d3392d1ce30d23ca88e013c1f53d10e81b15dc5505e857978b0173b29608ee4408d79d97420e0457160901d2c"
      ],
      "transaction": {
        "type": "0x02",
        "from": "0xe65fb27fb655f854afc66fa9fbf64f0299499a9f",
        "to": "0x60abeb98b3b95a0c5786261c1ab830e3d2383f9e",
        "gas": "0x4ac60",
        "value": "0x0",
        "data": "0x6646135b00000000000000000000000006b2b98db45481dd0878bb07979ba0a79b60a49e00000000000000000000000056ba6046cc51b859daa4eb6d445de99c5b1e43910000000000000000000000000000000000000000000000000000000000000fa0000000000000000000000000000000000000000000000000000000000000000a000000000000000000000000020a5be4a8bcbd885fec6122e3bee4e8f3baaaa200000000000000000000000000000000000000000000000000000000000000010000000000000000000000000000000000000000000000004563918244f4000000000000000000000000000000000000000000000000000000000001000276a4000000000000000000000000000000000000000000000000000000000000000100000000000000000000000000000000000000000000000000000000000000010000000000000000000000000000000000000000000000000000000000000000000000000000000000000000000000000000000000000000000000000000018000000000000000000000000000000000000000000000000000000000000000e00000000000000000000000000000000000000000000000004563918244f4000000000000000000000000000000000000000000000000000000000000007155450000000000000000000000000000000000000000000000000000000000000000000000000000000000000000000000000000000000000000000000000000005d000000000000000000000000000000000000000000000000000000000000001c5d12ce05347c320f8954326fab5104399349b84d3392d1ce30d23ca88e013c1f53d10e81b15dc5505e857978b0173b29608ee4408d79d97420e0457160901d2c",
        "nonce": "0x13",
        "accessList": []
      },
      "additionalContracts": [],
      "isFixedGasLimit": false
    }
  ],
  "receipts": [
    {
      "transactionHash": "0xbcb0afa54f71b7c55a0148a2b9a59b230b082cc481fcf18f809a47664a29031e",
      "transactionIndex": "0x1",
      "blockHash": "0x26a2ed79736c13f50b0971e4e6c1780168bba257f3c5ec3c1e7468cb20393539",
      "blockNumber": "0x715545",
      "from": "0xE65FB27FB655F854AfC66fA9fBF64f0299499A9F",
      "to": "0x06B2B98dB45481dd0878Bb07979Ba0A79b60A49e",
      "cumulativeGasUsed": "0x161ba",
      "gasUsed": "0xb657",
      "contractAddress": null,
      "logs": [
        {
          "address": "0x06B2B98dB45481dd0878Bb07979Ba0A79b60A49e",
          "topics": [
            "0x8c5be1e5ebec7d5bd14f71427d1e84f3dd0314c0f7b2291e5b200ac8c7c3b925",
            "0x000000000000000000000000e65fb27fb655f854afc66fa9fbf64f0299499a9f",
            "0x00000000000000000000000060abeb98b3b95a0c5786261c1ab830e3d2383f9e"
          ],
          "data": "0xffffffffffffffffffffffffffffffffffffffffffffffffffffffffffffffff",
          "blockHash": "0x26a2ed79736c13f50b0971e4e6c1780168bba257f3c5ec3c1e7468cb20393539",
          "blockNumber": "0x715545",
          "transactionHash": "0xbcb0afa54f71b7c55a0148a2b9a59b230b082cc481fcf18f809a47664a29031e",
          "transactionIndex": "0x1",
          "logIndex": "0x0",
          "removed": false
        }
      ],
      "status": "0x1",
      "logsBloom": "0x40000000000000000000000000000010200000000000000000000000000000000000000000200000100000000000000000000000000000000000000000200000000000000000000000000000000000000000000000000000000000000000000000000000000000000000000000000000000000000000000000000000000000000000000000000000000000000000400000000000000000000000000000000004024000000000000000000000000000000000000000000000000000000000000000000000000000000000000000000000000000000000000000000000000000000010000000000000000000040000000000000000000000000000000000000000",
      "type": "0x2",
      "effectiveGasPrice": "0xb5ca5f8a"
    },
    {
      "transactionHash": "0xedbacb3f235352f769f2f19716fa928692624f83b5ca94ea0f9e6b09a6977722",
      "transactionIndex": "0x2",
      "blockHash": "0x26a2ed79736c13f50b0971e4e6c1780168bba257f3c5ec3c1e7468cb20393539",
      "blockNumber": "0x715545",
      "from": "0xE65FB27FB655F854AfC66fA9fBF64f0299499A9F",
      "to": "0x56ba6046cc51b859DAA4Eb6D445DE99C5b1E4391",
      "cumulativeGasUsed": "0x21811",
      "gasUsed": "0xb657",
      "contractAddress": null,
      "logs": [
        {
          "address": "0x56ba6046cc51b859DAA4Eb6D445DE99C5b1E4391",
          "topics": [
            "0x8c5be1e5ebec7d5bd14f71427d1e84f3dd0314c0f7b2291e5b200ac8c7c3b925",
            "0x000000000000000000000000e65fb27fb655f854afc66fa9fbf64f0299499a9f",
            "0x00000000000000000000000060abeb98b3b95a0c5786261c1ab830e3d2383f9e"
          ],
          "data": "0xffffffffffffffffffffffffffffffffffffffffffffffffffffffffffffffff",
          "blockHash": "0x26a2ed79736c13f50b0971e4e6c1780168bba257f3c5ec3c1e7468cb20393539",
          "blockNumber": "0x715545",
          "transactionHash": "0xedbacb3f235352f769f2f19716fa928692624f83b5ca94ea0f9e6b09a6977722",
          "transactionIndex": "0x2",
          "logIndex": "0x1",
          "removed": false
        }
      ],
      "status": "0x1",
      "logsBloom": "0x40000000000000000000000000000010000000000000000000000000000000000000000000200000000000000000002000000000040000000000000000200000000000000000000000000000000000000000000000000000000000000000000000000000000000000000000000000000000000000000000000000000000000000000000000000000000000000000400000000000000000000000000000000004020000000000000000000000000000000000000000000000000000000000000000000000000000000000000200000000000000000000000000000000000000000010000000000000000000040000000000000000000000000000000000000000",
      "type": "0x2",
      "effectiveGasPrice": "0xb5ca5f8a"
    },
    {
      "transactionHash": "0x680bc8369ad7c9e5241169bdbb379f37f53f0906c19940bff1b172f8e723a963",
      "transactionIndex": "0x3",
      "blockHash": "0x26a2ed79736c13f50b0971e4e6c1780168bba257f3c5ec3c1e7468cb20393539",
      "blockNumber": "0x715545",
      "from": "0xE65FB27FB655F854AfC66fA9fBF64f0299499A9F",
      "to": "0x60AbEb98b3b95A0c5786261c1Ab830e3D2383F9e",
      "cumulativeGasUsed": "0x54a1a",
      "gasUsed": "0x33209",
      "contractAddress": null,
      "logs": [
        {
          "address": "0xd962b16F4ec712D705106674E944B04614F077be",
          "topics": [
            "0x40e9cecb9f5f1f1c5b9c97dec2917b7ee92e57ba5563708daca94dd84ad7112f",
            "0x1f32f90bd0a140a181894488cabfff1dfbf7d962654760ed230fbba740ee369d",
            "0x00000000000000000000000060abeb98b3b95a0c5786261c1ab830e3d2383f9e"
          ],
          "data": "0xffffffffffffffffffffffffffffffffffffffffffffffffba4c2b88fb46a7910000000000000000000000000000000000000000000000004563918244f400000000000000000000000000000000000000000000ffdf3b645a1cac083126e97800000000000000000000000000000000000000000000021e19e0c9bab2400000fffffffffffffffffffffffffffffffffffffffffffffffffffffffffffffff50000000000000000000000000000000000000000000000000000000000000fa0",
          "blockHash": "0x26a2ed79736c13f50b0971e4e6c1780168bba257f3c5ec3c1e7468cb20393539",
          "blockNumber": "0x715545",
          "transactionHash": "0x680bc8369ad7c9e5241169bdbb379f37f53f0906c19940bff1b172f8e723a963",
          "transactionIndex": "0x3",
          "logIndex": "0x2",
          "removed": false
        },
        {
          "address": "0x06B2B98dB45481dd0878Bb07979Ba0A79b60A49e",
          "topics": [
            "0xddf252ad1be2c89b69c2b068fc378daa952ba7f163c4a11628f55a4df523b3ef",
            "0x000000000000000000000000e65fb27fb655f854afc66fa9fbf64f0299499a9f",
            "0x000000000000000000000000d962b16f4ec712d705106674e944b04614f077be"
          ],
          "data": "0x00000000000000000000000000000000000000000000000045b3d47704b9586f",
          "blockHash": "0x26a2ed79736c13f50b0971e4e6c1780168bba257f3c5ec3c1e7468cb20393539",
          "blockNumber": "0x715545",
          "transactionHash": "0x680bc8369ad7c9e5241169bdbb379f37f53f0906c19940bff1b172f8e723a963",
          "transactionIndex": "0x3",
          "logIndex": "0x3",
          "removed": false
        },
        {
          "address": "0x56ba6046cc51b859DAA4Eb6D445DE99C5b1E4391",
          "topics": [
            "0xddf252ad1be2c89b69c2b068fc378daa952ba7f163c4a11628f55a4df523b3ef",
            "0x000000000000000000000000d962b16f4ec712d705106674e944b04614f077be",
            "0x000000000000000000000000e65fb27fb655f854afc66fa9fbf64f0299499a9f"
          ],
          "data": "0x0000000000000000000000000000000000000000000000004563918244f40000",
          "blockHash": "0x26a2ed79736c13f50b0971e4e6c1780168bba257f3c5ec3c1e7468cb20393539",
          "blockNumber": "0x715545",
          "transactionHash": "0x680bc8369ad7c9e5241169bdbb379f37f53f0906c19940bff1b172f8e723a963",
          "transactionIndex": "0x3",
          "logIndex": "0x4",
          "removed": false
        }
      ],
      "status": "0x1",
      "logsBloom": "0x40000000000000000000000000000010200000000000000000000000000000000000000000200000100000000000002000000000040000000000000000000000000000000000000000000008000000000000000000000020000000000000000000000000000000000000040000000000000000000000001000000018000000000000000000000000000000000000400000000000000000000000000000000004004000000000000010010000000000000000000000000000000000002000000000000002000000000000000200000000000000000000800000000000004000000000000000000000004000040000000000000020000000000000000000000000",
      "type": "0x2",
      "effectiveGasPrice": "0xb5ca5f8a"
    }
  ],
  "libraries": [],
  "pending": [],
  "returns": {},
  "timestamp": 1710623088,
  "chain": 84532,
  "commit": "911b99f"
}