{
  "transactions": [
    {
      "hash": "0x8a153f6737d650d633ce1abd3b132719bc8ac38b74e112c422e090d82d4af598",
      "transactionType": "CALL",
      "contractName": "PoolManager",
      "contractAddress": "0xd962b16F4ec712D705106674E944B04614F077be",
      "function": "initialize((address,address,uint24,int24,address),uint160,bytes)",
      "arguments": [
        "(0x0844B1EC6ee5E2F575Aa55724057721b9cd30e80, 0x19544eafF5959f228D2d76dF1570B220121518A8, 4000, 10, 0x020664b9f354c415a7D01dAa483CF78aFe02F66E)",
        "79228162514264337593543950336",
        "0x0000000000000000000000000000000000000000000000000000000065f618ee"
      ],
      "transaction": {
        "type": "0x02",
        "from": "0xe65fb27fb655f854afc66fa9fbf64f0299499a9f",
        "to": "0xd962b16f4ec712d705106674e944b04614f077be",
        "gas": "0x12c6c",
        "value": "0x0",
        "data": "0x695c5bf50000000000000000000000000844b1ec6ee5e2f575aa55724057721b9cd30e8000000000000000000000000019544eaff5959f228d2d76df1570b220121518a80000000000000000000000000000000000000000000000000000000000000fa0000000000000000000000000000000000000000000000000000000000000000a000000000000000000000000020664b9f354c415a7d01daa483cf78afe02f66e000000000000000000000000000000000000000100000000000000000000000000000000000000000000000000000000000000000000000000000000000000e000000000000000000000000000000000000000000000000000000000000000200000000000000000000000000000000000000000000000000000000065f618ee",
        "nonce": "0x18",
        "accessList": []
      },
      "additionalContracts": [],
      "isFixedGasLimit": false
    }
  ],
  "receipts": [
    {
      "transactionHash": "0x8a153f6737d650d633ce1abd3b132719bc8ac38b74e112c422e090d82d4af598",
      "transactionIndex": "0x1",
      "blockHash": "0xebf38854de9ec0b078493d681f4c132d9bdd49794fca34e032b655dd84988557",
      "blockNumber": "0x715d0c",
      "from": "0xE65FB27FB655F854AfC66fA9fBF64f0299499A9F",
      "to": "0xd962b16F4ec712D705106674E944B04614F077be",
      "cumulativeGasUsed": "0x184e3",
      "gasUsed": "0xd980",
      "contractAddress": null,
      "logs": [
        {
          "address": "0xd962b16F4ec712D705106674E944B04614F077be",
          "topics": [
            "0x3fd553db44f207b1f41348cfc4d251860814af9eadc470e8e7895e4d120511f4",
            "0x19aa2b824a93fcae7f0b7f292aee9b86b81c3b3bc5c567011601d46c8f5a6810",
            "0x0000000000000000000000000844b1ec6ee5e2f575aa55724057721b9cd30e80",
            "0x00000000000000000000000019544eaff5959f228d2d76df1570b220121518a8"
          ],
          "data": "0x0000000000000000000000000000000000000000000000000000000000000fa0000000000000000000000000000000000000000000000000000000000000000a000000000000000000000000020664b9f354c415a7d01daa483cf78afe02f66e",
          "blockHash": "0xebf38854de9ec0b078493d681f4c132d9bdd49794fca34e032b655dd84988557",
          "blockNumber": "0x715d0c",
          "transactionHash": "0x8a153f6737d650d633ce1abd3b132719bc8ac38b74e112c422e090d82d4af598",
          "transactionIndex": "0x1",
          "logIndex": "0x0",
          "removed": false
        }
      ],
      "status": "0x1",
      "logsBloom": "0x00000000000000000000000000008000000000000020000000000000000000000000000000000000000000000000000000000000000000010000000000000000000000000000008000000000000020000000000000000000000000000000000000000000000000010000040000000000000000008000000000000000000000000000000000000000000008000000000000000000000000000000000000000000000000000000000000000000001000000000000000000000000000002000000000000000000040000000000000000000000000000000000000000000000000040000000000000000000000000000000000000020000002000000000000000000",
      "type": "0x2",
      "effectiveGasPrice": "0xb5d1c47f"
    }
  ],
  "libraries": [],
  "pending": [],
  "returns": {},
  "timestamp": 1710627068,
  "chain": 84532,
  "commit": "e6d8283"
}