{
  "transactions": [
    {
      "hash": "0x508764bd8b0bf0b6b8aadb6dd408090e6ebe781147ad5b73d1318f2b49c8a7c4",
      "transactionType": "CALL",
      "contractName": null,
      "contractAddress": "0xd962b16F4ec712D705106674E944B04614F077be",
      "function": "initialize((address,address,uint24,int24,address),uint160,bytes)",
      "arguments": [
        "(0x213F93ce6aAe07E80D58Bd9dcC058FA8CD86B2e7, 0xf48d21cB71EFf1a1a457796f5Fe2c9d9DedFB574, 4000, 10, 0x020ceF538019D70197baaDF7515A598a8DdD2a18)",
        "79228162514264337593543950336",
        "0x0000000000000000000000000000000000000000000000000000000065f5ed84"
      ],
      "transaction": {
        "type": "0x02",
        "from": "0xe65fb27fb655f854afc66fa9fbf64f0299499a9f",
        "to": "0xd962b16f4ec712d705106674e944b04614f077be",
        "gas": "0x12c6c",
        "value": "0x0",
        "data": "0x695c5bf5000000000000000000000000213f93ce6aae07e80d58bd9dcc058fa8cd86b2e7000000000000000000000000f48d21cb71eff1a1a457796f5fe2c9d9dedfb5740000000000000000000000000000000000000000000000000000000000000fa0000000000000000000000000000000000000000000000000000000000000000a000000000000000000000000020cef538019d70197baadf7515a598a8ddd2a18000000000000000000000000000000000000000100000000000000000000000000000000000000000000000000000000000000000000000000000000000000e000000000000000000000000000000000000000000000000000000000000000200000000000000000000000000000000000000000000000000000000065f5ed84",
        "nonce": "0x4",
        "accessList": []
      },
      "additionalContracts": [],
      "isFixedGasLimit": false
    }
  ],
  "receipts": [
    {
      "transactionHash": "0x508764bd8b0bf0b6b8aadb6dd408090e6ebe781147ad5b73d1318f2b49c8a7c4",
      "transactionIndex": "0x1",
      "blockHash": "0x8e7de3835ce8b31945310afe23c0ff2042243593ace5fda8bf77d48abf08e1d5",
      "blockNumber": "0x714758",
      "from": "0xE65FB27FB655F854AfC66fA9fBF64f0299499A9F",
      "to": "0xd962b16F4ec712D705106674E944B04614F077be",
      "cumulativeGasUsed": "0x184e3",
      "gasUsed": "0xd980",
      "contractAddress": null,
      "logs": [
        {
          "address": "0xd962b16F4ec712D705106674E944B04614F077be",
          "topics": [
            "0x3fd553db44f207b1f41348cfc4d251860814af9eadc470e8e7895e4d120511f4",
            "0x2d443824a26277378c8aa4f7fa38b5805fb9ad9fd734729cfdb456819a5c2311",
            "0x000000000000000000000000213f93ce6aae07e80d58bd9dcc058fa8cd86b2e7",
            "0x000000000000000000000000f48d21cb71eff1a1a457796f5fe2c9d9dedfb574"
          ],
          "data": "0x0000000000000000000000000000000000000000000000000000000000000fa0000000000000000000000000000000000000000000000000000000000000000a000000000000000000000000020cef538019d70197baadf7515a598a8ddd2a18",
          "blockHash": "0x8e7de3835ce8b31945310afe23c0ff2042243593ace5fda8bf77d48abf08e1d5",
          "blockNumber": "0x714758",
          "transactionHash": "0x508764bd8b0bf0b6b8aadb6dd408090e6ebe781147ad5b73d1318f2b49c8a7c4",
          "transactionIndex": "0x1",
          "logIndex": "0x0",
          "removed": false
        }
      ],
      "status": "0x1",
      "logsBloom": "0x00000000000000000000000000100000000000000000000000000000000000000000000000000000000000000000000004000010000000000000000000000000000000000000000000000000000020000000000004000000001000000000000000000000000000000000040000000000000000000000000000000000000000000000000000000000000000000000000000000000000000000000000000000000000000000000000000000000000000000000000000000000000000002100000000000000000000020000000000000000000000000000000000000000000000040004000000000000000000000000000000000020000002020000000000000000",
      "type": "0x2",
      "effectiveGasPrice": "0xb5d3af8c"
    }
  ],
  "libraries": [],
  "pending": [],
  "returns": {},
  "timestamp": 1710615956,
  "chain": 84532,
  "commit": "911b99f"
}