{
  "transactions": [
    {
      "hash": "0x6680770c8435bed137a7a8f2c50b751b108cd79c298642e6f906bee1413f076f",
      "transactionType": "CALL",
      "contractName": null,
      "contractAddress": "0x213F93ce6aAe07E80D58Bd9dcC058FA8CD86B2e7",
      "function": "approve(address,uint256)",
      "arguments": [
        "0x5bA874E13D2Cf3161F89D1B1d1732D14226dBF16",
        "1000000000000000000000"
      ],
      "transaction": {
        "type": "0x02",
        "from": "0xe65fb27fb655f854afc66fa9fbf64f0299499a9f",
        "to": "0x213f93ce6aae07e80d58bd9dcc058fa8cd86b2e7",
        "gas": "0x108f4",
        "value": "0x0",
        "data": "0x095ea7b30000000000000000000000005ba874e13d2cf3161f89d1b1d1732d14226dbf1600000000000000000000000000000000000000000000003635c9adc5dea00000",
        "nonce": "0x7",
        "accessList": []
      },
      "additionalContracts": [],
      "isFixedGasLimit": false
    },
    {
      "hash": "0x4d9eb79a8acde0abaae95ecbe75887cf76287df8d1989e59a813012a01825208",
      "transactionType": "CALL",
      "contractName": null,
      "contractAddress": "0xf48d21cB71EFf1a1a457796f5Fe2c9d9DedFB574",
      "function": "approve(address,uint256)",
      "arguments": [
        "0x5bA874E13D2Cf3161F89D1B1d1732D14226dBF16",
        "1000000000000000000000"
      ],
      "transaction": {
        "type": "0x02",
        "from": "0xe65fb27fb655f854afc66fa9fbf64f0299499a9f",
        "to": "0xf48d21cb71eff1a1a457796f5fe2c9d9dedfb574",
        "gas": "0x108f4",
        "value": "0x0",
        "data": "0x095ea7b30000000000000000000000005ba874e13d2cf3161f89d1b1d1732d14226dbf1600000000000000000000000000000000000000000000003635c9adc5dea00000",
        "nonce": "0x8",
        "accessList": []
      },
      "additionalContracts": [],
      "isFixedGasLimit": false
    },
    {
      "hash": "0x9a2bfae8854949d6b407c0f447672e364cc531229185c430d803c8c6fc501555",
      "transactionType": "CALL",
      "contractName": null,
      "contractAddress": "0x5bA874E13D2Cf3161F89D1B1d1732D14226dBF16",
      "function": "modifyLiquidity((address,address,uint24,int24,address),(int24,int24,int256),bytes)",
      "arguments": [
        "(0x213F93ce6aAe07E80D58Bd9dcC058FA8CD86B2e7, 0xf48d21cB71EFf1a1a457796f5Fe2c9d9DedFB574, 4000, 10, 0x02048dd9ba60F39df0f74F115C9B31B2652E7C4d)",
        "(-600, 600, 10000000000000000000000)",
        "0x"
      ],
      "transaction": {
        "type": "0x02",
        "from": "0xe65fb27fb655f854afc66fa9fbf64f0299499a9f",
        "to": "0x5ba874e13d2cf3161f89d1b1d1732d14226dbf16",
        "gas": "0x7d453",
        "value": "0x0",
        "data": "0xbec999dd000000000000000000000000213f93ce6aae07e80d58bd9dcc058fa8cd86b2e7000000000000000000000000f48d21cb71eff1a1a457796f5fe2c9d9dedfb5740000000000000000000000000000000000000000000000000000000000000fa0000000000000000000000000000000000000000000000000000000000000000a00000000000000000000000002048dd9ba60f39df0f74f115c9b31b2652e7c4dfffffffffffffffffffffffffffffffffffffffffffffffffffffffffffffda8000000000000000000000000000000000000000000000000000000000000025800000000000000000000000000000000000000000000021e19e0c9bab240000000000000000000000000000000000000000000000000000000000000000001200000000000000000000000000000000000000000000000000000000000000000",
        "nonce": "0x9",
        "accessList": []
      },
      "additionalContracts": [],
      "isFixedGasLimit": false
    }
  ],
  "receipts": [
    {
      "transactionHash": "0x6680770c8435bed137a7a8f2c50b751b108cd79c298642e6f906bee1413f076f",
      "transactionIndex": "0x1",
      "blockHash": "0x2b0b341a9efa136667673018b05503280fe02aa6b668876e608e418cd42b6b27",
      "blockNumber": "0x714a58",
      "from": "0xE65FB27FB655F854AfC66fA9fBF64f0299499A9F",
      "to": "0x213F93ce6aAe07E80D58Bd9dcC058FA8CD86B2e7",
      "cumulativeGasUsed": "0x1608e",
      "gasUsed": "0xb52b",
      "contractAddress": null,
      "logs": [
        {
          "address": "0x213F93ce6aAe07E80D58Bd9dcC058FA8CD86B2e7",
          "topics": [
            "0x8c5be1e5ebec7d5bd14f71427d1e84f3dd0314c0f7b2291e5b200ac8c7c3b925",
            "0x000000000000000000000000e65fb27fb655f854afc66fa9fbf64f0299499a9f",
            "0x0000000000000000000000005ba874e13d2cf3161f89d1b1d1732d14226dbf16"
          ],
          "data": "0x00000000000000000000000000000000000000000000003635c9adc5dea00000",
          "blockHash": "0x2b0b341a9efa136667673018b05503280fe02aa6b668876e608e418cd42b6b27",
          "blockNumber": "0x714a58",
          "transactionHash": "0x6680770c8435bed137a7a8f2c50b751b108cd79c298642e6f906bee1413f076f",
          "transactionIndex": "0x1",
          "logIndex": "0x0",
          "removed": false
        }
      ],
      "status": "0x1",
      "logsBloom": "0x40000000000000000000000000000000000000000000000000000000000000000000000000200000000000000000000002000000000000000000000000200000000000000000000000000000000000000000000000100000000000000000000000000000000000000000000000000000000001000000000000000000000000000000000000000000000000000000400000000000000000000000000000000000020000400000000000000000000000000000000000000000000000000000000000000000000000000000000000000000001000000000200000000000000000000010000000000000000000000000000000000000000000000000000000000000",
      "type": "0x2",
      "effectiveGasPrice": "0xb5d8e021"
    },
    {
      "transactionHash": "0x4d9eb79a8acde0abaae95ecbe75887cf76287df8d1989e59a813012a01825208",
      "transactionIndex": "0x2",
      "blockHash": "0x2b0b341a9efa136667673018b05503280fe02aa6b668876e608e418cd42b6b27",
      "blockNumber": "0x714a58",
      "from": "0xE65FB27FB655F854AfC66fA9fBF64f0299499A9F",
      "to": "0xf48d21cB71EFf1a1a457796f5Fe2c9d9DedFB574",
      "cumulativeGasUsed": "0x215b9",
      "gasUsed": "0xb52b",
      "contractAddress": null,
      "logs": [
        {
          "address": "0xf48d21cB71EFf1a1a457796f5Fe2c9d9DedFB574",
          "topics": [
            "0x8c5be1e5ebec7d5bd14f71427d1e84f3dd0314c0f7b2291e5b200ac8c7c3b925",
            "0x000000000000000000000000e65fb27fb655f854afc66fa9fbf64f0299499a9f",
            "0x0000000000000000000000005ba874e13d2cf3161f89d1b1d1732d14226dbf16"
          ],
          "data": "0x00000000000000000000000000000000000000000000003635c9adc5dea00000",
          "blockHash": "0x2b0b341a9efa136667673018b05503280fe02aa6b668876e608e418cd42b6b27",
          "blockNumber": "0x714a58",
          "transactionHash": "0x4d9eb79a8acde0abaae95ecbe75887cf76287df8d1989e59a813012a01825208",
          "transactionIndex": "0x2",
          "logIndex": "0x1",
          "removed": false
        }
      ],
      "status": "0x1",
      "logsBloom": "0x40000000000000000000000000000000000000000000000000000000000000000000000000200000000000000000000002000000000000002000000000200000000000000000000000000000000000000000000000000000000000000000000000000000200000000000000000000000000000200000000000000000000000000000000000000000000000000000400000000000000000000000000000000000020000400000000000000000000000000000000000000000000000000000000000000000000000000000000000000000001000000000000000000000000000000010000000000000000000000000000000000000000000000000000000000000",
      "type": "0x2",
      "effectiveGasPrice": "0xb5d8e021"
    },
    {
      "transactionHash": "0x9a2bfae8854949d6b407c0f447672e364cc531229185c430d803c8c6fc501555",
      "transactionIndex": "0x3",
      "blockHash": "0x2b0b341a9efa136667673018b05503280fe02aa6b668876e608e418cd42b6b27",
      "blockNumber": "0x714a58",
      "from": "0xE65FB27FB655F854AfC66fA9fBF64f0299499A9F",
      "to": "0x5bA874E13D2Cf3161F89D1B1d1732D14226dBF16",
      "cumulativeGasUsed": "0x77034",
      "gasUsed": "0x55a7b",
      "contractAddress": null,
      "logs": [
        {
          "address": "0xd962b16F4ec712D705106674E944B04614F077be",
          "topics": [
            "0x541c041c2cce48e614b3de043c9280f06b6164c0a1741649e2de3c3d375f7974",
            "0xe0ef11eb1ed78f19f4fb5a0b81b2350155f9cc8a1447184bfed2d4bccd6a3ab4",
            "0x0000000000000000000000005ba874e13d2cf3161f89d1b1d1732d14226dbf16"
          ],
          "data": "0xfffffffffffffffffffffffffffffffffffffffffffffffffffffffffffffda8000000000000000000000000000000000000000000000000000000000000025800000000000000000000000000000000000000000000021e19e0c9bab2400000",
          "blockHash": "0x2b0b341a9efa136667673018b05503280fe02aa6b668876e608e418cd42b6b27",
          "blockNumber": "0x714a58",
          "transactionHash": "0x9a2bfae8854949d6b407c0f447672e364cc531229185c430d803c8c6fc501555",
          "transactionIndex": "0x3",
          "logIndex": "0x2",
          "removed": false
        },
        {
          "address": "0x213F93ce6aAe07E80D58Bd9dcC058FA8CD86B2e7",
          "topics": [
            "0xddf252ad1be2c89b69c2b068fc378daa952ba7f163c4a11628f55a4df523b3ef",
            "0x000000000000000000000000e65fb27fb655f854afc66fa9fbf64f0299499a9f",
            "0x000000000000000000000000d962b16f4ec712d705106674e944b04614f077be"
          ],
          "data": "0x000000000000000000000000000000000000000000000010054ddc28fe418aa9",
          "blockHash": "0x2b0b341a9efa136667673018b05503280fe02aa6b668876e608e418cd42b6b27",
          "blockNumber": "0x714a58",
          "transactionHash": "0x9a2bfae8854949d6b407c0f447672e364cc531229185c430d803c8c6fc501555",
          "transactionIndex": "0x3",
          "logIndex": "0x3",
          "removed": false
        },
        {
          "address": "0xf48d21cB71EFf1a1a457796f5Fe2c9d9DedFB574",
          "topics": [
            "0xddf252ad1be2c89b69c2b068fc378daa952ba7f163c4a11628f55a4df523b3ef",
            "0x000000000000000000000000e65fb27fb655f854afc66fa9fbf64f0299499a9f",
            "0x000000000000000000000000d962b16f4ec712d705106674e944b04614f077be"
          ],
          "data": "0x000000000000000000000000000000000000000000000010054ddc28fe418aa9",
          "blockHash": "0x2b0b341a9efa136667673018b05503280fe02aa6b668876e608e418cd42b6b27",
          "blockNumber": "0x714a58",
          "transactionHash": "0x9a2bfae8854949d6b407c0f447672e364cc531229185c430d803c8c6fc501555",
          "transactionIndex": "0x3",
          "logIndex": "0x4",
          "removed": false
        }
      ],
      "status": "0x1",
      "logsBloom": "0x40000000100000000000000000000000000000008000000000000000000000000000000000200000000000000000000002000000000000002000000000000000000000000000000000000008000000000000000000100000000000000400000010000080200000000000040000000000000001200000000000000018000000000000000000000000000000000000400000000000000000000000000000000000000000400000000010000000000000000000000000000000000000002000000000000002000000000000000000000000001000000000a00000000000000000000000000000000000040000000000000000000020000000000000000000000000",
      "type": "0x2",
      "effectiveGasPrice": "0xb5d8e021"
    }
  ],
  "libraries": [],
  "pending": [],
  "returns": {},
  "timestamp": 1710617493,
  "chain": 84532,
  "commit": "911b99f"
}