{
  "transactions": [
    {
      "hash": "0x9f462a53e17a1389ed2873f56246dabec8f11c97bced3924ab2be4d57a740c09",
      "transactionType": "CALL",
      "contractName": null,
      "contractAddress": "0x06B2B98dB45481dd0878Bb07979Ba0A79b60A49e",
      "function": "approve(address,uint256)",
      "arguments": [
        "0x5bA874E13D2Cf3161F89D1B1d1732D14226dBF16",
        "1000000000000000000000"
      ],
      "transaction": {
        "type": "0x02",
        "from": "0xe65fb27fb655f854afc66fa9fbf64f0299499a9f",
        "to": "0x06b2b98db45481dd0878bb07979ba0a79b60a49e",
        "gas": "0x108f4",
        "value": "0x0",
        "data": "0x095ea7b30000000000000000000000005ba874e13d2cf3161f89d1b1d1732d14226dbf1600000000000000000000000000000000000000000000003635c9adc5dea00000",
        "nonce": "0xe",
        "accessList": []
      },
      "additionalContracts": [],
      "isFixedGasLimit": false
    },
    {
      "hash": "0x535e1e00d8aaebef57b5122e5f788a4cef6a799ccdb5737d5f31e2e7bb53fca5",
      "transactionType": "CALL",
      "contractName": null,
      "contractAddress": "0x56ba6046cc51b859DAA4Eb6D445DE99C5b1E4391",
      "function": "approve(address,uint256)",
      "arguments": [
        "0x5bA874E13D2Cf3161F89D1B1d1732D14226dBF16",
        "1000000000000000000000"
      ],
      "transaction": {
        "type": "0x02",
        "from": "0xe65fb27fb655f854afc66fa9fbf64f0299499a9f",
        "to": "0x56ba6046cc51b859daa4eb6d445de99c5b1e4391",
        "gas": "0x108f4",
        "value": "0x0",
        "data": "0x095ea7b30000000000000000000000005ba874e13d2cf3161f89d1b1d1732d14226dbf1600000000000000000000000000000000000000000000003635c9adc5dea00000",
        "nonce": "0xf",
        "accessList": []
      },
      "additionalContracts": [],
      "isFixedGasLimit": false
    },
    {
      "hash": "0xf02330f030ef0706df141488a05460d79b6dfcd66209250c9660717601fefdfc",
      "transactionType": "CALL",
      "contractName": null,
      "contractAddress": "0x5bA874E13D2Cf3161F89D1B1d1732D14226dBF16",
      "function": "modifyLiquidity((address,address,uint24,int24,address),(int24,int24,int256),bytes)",
      "arguments": [
        "(0x06B2B98dB45481dd0878Bb07979Ba0A79b60A49e, 0x56ba6046cc51b859DAA4Eb6D445DE99C5b1E4391, 4000, 10, 0x020A5bE4a8BCbd885fEC6122e3beE4e8F3Baaaa2)",
        "(-600, 600, 10000000000000000000000)",
        "0x"
      ],
      "transaction": {
        "type": "0x02",
        "from": "0xe65fb27fb655f854afc66fa9fbf64f0299499a9f",
        "to": "0x5ba874e13d2cf3161f89d1b1d1732d14226dbf16",
        "gas": "0x7d453",
        "value": "0x0",
        "data": "0xbec999dd00000000000000000000000006b2b98db45481dd0878bb07979ba0a79b60a49e00000000000000000000000056ba6046cc51b859daa4eb6d445de99c5b1e43910000000000000000000000000000000000000000000000000000000000000fa0000000000000000000000000000000000000000000000000000000000000000a000000000000000000000000020a5be4a8bcbd885fec6122e3bee4e8f3baaaa2fffffffffffffffffffffffffffffffffffffffffffffffffffffffffffffda8000000000000000000000000000000000000000000000000000000000000025800000000000000000000000000000000000000000000021e19e0c9bab240000000000000000000000000000000000000000000000000000000000000000001200000000000000000000000000000000000000000000000000000000000000000",
        "nonce": "0x10",
        "accessList": []
      },
      "additionalContracts": [],
      "isFixedGasLimit": false
    }
  ],
  "receipts": [
    {
      "transactionHash": "0x9f462a53e17a1389ed2873f56246dabec8f11c97bced3924ab2be4d57a740c09",
      "transactionIndex": "0x1",
      "blockHash": "0x6b8f12f0d09fdc32c9ad2819807cb2e09b6b7a3e721d6fbe16afd60bc1531e1f",
      "blockNumber": "0x714f94",
      "from": "0xE65FB27FB655F854AfC66fA9fBF64f0299499A9F",
      "to": "0x06B2B98dB45481dd0878Bb07979Ba0A79b60A49e",
      "cumulativeGasUsed": "0x18c42",
      "gasUsed": "0xb52b",
      "contractAddress": null,
      "logs": [
        {
          "address": "0x06B2B98dB45481dd0878Bb07979Ba0A79b60A49e",
          "topics": [
            "0x8c5be1e5ebec7d5bd14f71427d1e84f3dd0314c0f7b2291e5b200ac8c7c3b925",
            "0x000000000000000000000000e65fb27fb655f854afc66fa9fbf64f0299499a9f",
            "0x0000000000000000000000005ba874e13d2cf3161f89d1b1d1732d14226dbf16"
          ],
          "data": "0x00000000000000000000000000000000000000000000003635c9adc5dea00000",
          "blockHash": "0x6b8f12f0d09fdc32c9ad2819807cb2e09b6b7a3e721d6fbe16afd60bc1531e1f",
          "blockNumber": "0x714f94",
          "transactionHash": "0x9f462a53e17a1389ed2873f56246dabec8f11c97bced3924ab2be4d57a740c09",
          "transactionIndex": "0x1",
          "logIndex": "0x0",
          "removed": false
        }
      ],
      "status": "0x1",
      "logsBloom": "0x40000000000000000000000000000000200000000000000000000000000000000000000000200000100000000000000002000000000000000000000000200000000000000000000000000000000000000000000000000000000000000000000000000000000000000000000000000000000000000000000000000000000000000000000000000000000000000000400000000000000000000000000000000000024000400000000000000000000000000000000000000000000000000000000000000000000000000000000000000000001000000000000000000000000000000010000000000000000000000000000000000000000000000000000000000000",
      "type": "0x2",
      "effectiveGasPrice": "0xb5d1bde5"
    },
    {
      "transactionHash": "0x535e1e00d8aaebef57b5122e5f788a4cef6a799ccdb5737d5f31e2e7bb53fca5",
      "transactionIndex": "0x2",
      "blockHash": "0x6b8f12f0d09fdc32c9ad2819807cb2e09b6b7a3e721d6fbe16afd60bc1531e1f",
      "blockNumber": "0x714f94",
      "from": "0xE65FB27FB655F854AfC66fA9fBF64f0299499A9F",
      "to": "0x56ba6046cc51b859DAA4Eb6D445DE99C5b1E4391",
      "cumulativeGasUsed": "0x2416d",
      "gasUsed": "0xb52b",
      "contractAddress": null,
      "logs": [
        {
          "address": "0x56ba6046cc51b859DAA4Eb6D445DE99C5b1E4391",
          "topics": [
            "0x8c5be1e5ebec7d5bd14f71427d1e84f3dd0314c0f7b2291e5b200ac8c7c3b925",
            "0x000000000000000000000000e65fb27fb655f854afc66fa9fbf64f0299499a9f",
            "0x0000000000000000000000005ba874e13d2cf3161f89d1b1d1732d14226dbf16"
          ],
          "data": "0x00000000000000000000000000000000000000000000003635c9adc5dea00000",
          "blockHash": "0x6b8f12f0d09fdc32c9ad2819807cb2e09b6b7a3e721d6fbe16afd60bc1531e1f",
          "blockNumber": "0x714f94",
          "transactionHash": "0x535e1e00d8aaebef57b5122e5f788a4cef6a799ccdb5737d5f31e2e7bb53fca5",
          "transactionIndex": "0x2",
          "logIndex": "0x1",
          "removed": false
        }
      ],
      "status": "0x1",
      "logsBloom": "0x40000000000000000000000000000000000000000000000000000000000000000000000000200000000000000000002002000000040000000000000000200000000000000000000000000000000000000000000000000000000000000000000000000000000000000000000000000000000000000000000000000000000000000000000000000000000000000000400000000000000000000000000000000000020000400000000000000000000000000000000000000000000000000000000000000000000000000000000200000000001000000000000000000000000000000010000000000000000000000000000000000000000000000000000000000000",
      "type": "0x2",
      "effectiveGasPrice": "0xb5d1bde5"
    },
    {
      "transactionHash": "0xf02330f030ef0706df141488a05460d79b6dfcd66209250c9660717601fefdfc",
      "transactionIndex": "0x3",
      "blockHash": "0x6b8f12f0d09fdc32c9ad2819807cb2e09b6b7a3e721d6fbe16afd60bc1531e1f",
      "blockNumber": "0x714f94",
      "from": "0xE65FB27FB655F854AfC66fA9fBF64f0299499A9F",
      "to": "0x5bA874E13D2Cf3161F89D1B1d1732D14226dBF16",
      "cumulativeGasUsed": "0x79be8",
      "gasUsed": "0x55a7b",
      "contractAddress": null,
      "logs": [
        {
          "address": "0xd962b16F4ec712D705106674E944B04614F077be",
          "topics": [
            "0x541c041c2cce48e614b3de043c9280f06b6164c0a1741649e2de3c3d375f7974",
            "0x1f32f90bd0a140a181894488cabfff1dfbf7d962654760ed230fbba740ee369d",
            "0x0000000000000000000000005ba874e13d2cf3161f89d1b1d1732d14226dbf16"
          ],
          "data": "0xfffffffffffffffffffffffffffffffffffffffffffffffffffffffffffffda8000000000000000000000000000000000000000000000000000000000000025800000000000000000000000000000000000000000000021e19e0c9bab2400000",
          "blockHash": "0x6b8f12f0d09fdc32c9ad2819807cb2e09b6b7a3e721d6fbe16afd60bc1531e1f",
          "blockNumber": "0x714f94",
          "transactionHash": "0xf02330f030ef0706df141488a05460d79b6dfcd66209250c9660717601fefdfc",
          "transactionIndex": "0x3",
          "logIndex": "0x2",
          "removed": false
        },
        {
          "address": "0x06B2B98dB45481dd0878Bb07979Ba0A79b60A49e",
          "topics": [
            "0xddf252ad1be2c89b69c2b068fc378daa952ba7f163c4a11628f55a4df523b3ef",
            "0x000000000000000000000000e65fb27fb655f854afc66fa9fbf64f0299499a9f",
            "0x000000000000000000000000d962b16f4ec712d705106674e944b04614f077be"
          ],
          "data": "0x000000000000000000000000000000000000000000000010054ddc28fe418aa9",
          "blockHash": "0x6b8f12f0d09fdc32c9ad2819807cb2e09b6b7a3e721d6fbe16afd60bc1531e1f",
          "blockNumber": "0x714f94",
          "transactionHash": "0xf02330f030ef0706df141488a05460d79b6dfcd66209250c9660717601fefdfc",
          "transactionIndex": "0x3",
          "logIndex": "0x3",
          "removed": false
        },
        {
          "address": "0x56ba6046cc51b859DAA4Eb6D445DE99C5b1E4391",
          "topics": [
            "0xddf252ad1be2c89b69c2b068fc378daa952ba7f163c4a11628f55a4df523b3ef",
            "0x000000000000000000000000e65fb27fb655f854afc66fa9fbf64f0299499a9f",
            "0x000000000000000000000000d962b16f4ec712d705106674e944b04614f077be"
          ],
          "data": "0x000000000000000000000000000000000000000000000010054ddc28fe418aa9",
          "blockHash": "0x6b8f12f0d09fdc32c9ad2819807cb2e09b6b7a3e721d6fbe16afd60bc1531e1f",
          "blockNumber": "0x714f94",
          "transactionHash": "0xf02330f030ef0706df141488a05460d79b6dfcd66209250c9660717601fefdfc",
          "transactionIndex": "0x3",
          "logIndex": "0x4",
          "removed": false
        }
      ],
      "status": "0x1",
      "logsBloom": "0x40000000100000000000000000000000200000000000000000000000000000000000000000200000100000000000002002000000040000000000000000000000000000000000000000000008000000000000000000000000000000000000000010000000000000000000040000000000000000000000001000000018000000000000000000000000000000000000400000000000000000000000000000000000004000400000000010010000000000000000000000000000000000002000000000000002000000000000000200000000001000000000800000000000004000000000000000000000040000000000000000000020000000000000000000000000",
      "type": "0x2",
      "effectiveGasPrice": "0xb5d1bde5"
    }
  ],
  "libraries": [],
  "pending": [],
  "returns": {},
  "timestamp": 1710620173,
  "chain": 84532,
  "commit": "911b99f"
}