{
  "transactions": [
    {
      "hash": "0x72ee77fa725b924b751909bb8afa88f6b1f2a4e2b8bbd498e8596cff07999a0f",
      "transactionType": "CALL",
      "contractName": null,
      "contractAddress": "0x0844B1EC6ee5E2F575Aa55724057721b9cd30e80",
      "function": "approve(address,uint256)",
      "arguments": [
        "0x5bA874E13D2Cf3161F89D1B1d1732D14226dBF16",
        "1000000000000000000000"
      ],
      "transaction": {
        "type": "0x02",
        "from": "0xe65fb27fb655f854afc66fa9fbf64f0299499a9f",
        "to": "0x0844b1ec6ee5e2f575aa55724057721b9cd30e80",
        "gas": "0x108f4",
        "value": "0x0",
        "data": "0x095ea7b30000000000000000000000005ba874e13d2cf3161f89d1b1d1732d14226dbf1600000000000000000000000000000000000000000000003635c9adc5dea00000",
        "nonce": "0x19",
        "accessList": []
      },
      "additionalContracts": [],
      "isFixedGasLimit": false
    },
    {
      "hash": "0xb43f714a1dba07e65c65a69bc6f03567d038aa3ee1485cc10ed601a36d461b00",
      "transactionType": "CALL",
      "contractName": null,
      "contractAddress": "0x19544eafF5959f228D2d76dF1570B220121518A8",
      "function": "approve(address,uint256)",
      "arguments": [
        "0x5bA874E13D2Cf3161F89D1B1d1732D14226dBF16",
        "1000000000000000000000"
      ],
      "transaction": {
        "type": "0x02",
        "from": "0xe65fb27fb655f854afc66fa9fbf64f0299499a9f",
        "to": "0x19544eaff5959f228d2d76df1570b220121518a8",
        "gas": "0x108f4",
        "value": "0x0",
        "data": "0x095ea7b30000000000000000000000005ba874e13d2cf3161f89d1b1d1732d14226dbf1600000000000000000000000000000000000000000000003635c9adc5dea00000",
        "nonce": "0x1a",
        "accessList": []
      },
      "additionalContracts": [],
      "isFixedGasLimit": false
    },
    {
      "hash": "0x6ae6a1addd41e92f2e0ffc2cb1abd9e296eed2cc4e0516f83bd739ea1ca402d9",
      "transactionType": "CALL",
      "contractName": null,
      "contractAddress": "0x5bA874E13D2Cf3161F89D1B1d1732D14226dBF16",
      "function": "modifyLiquidity((address,address,uint24,int24,address),(int24,int24,int256),bytes)",
      "arguments": [
        "(0x0844B1EC6ee5E2F575Aa55724057721b9cd30e80, 0x19544eafF5959f228D2d76dF1570B220121518A8, 4000, 10, 0x020664b9f354c415a7D01dAa483CF78aFe02F66E)",
        "(-600, 600, 10000000000000000000000)",
        "0x"
      ],
      "transaction": {
        "type": "0x02",
        "from": "0xe65fb27fb655f854afc66fa9fbf64f0299499a9f",
        "to": "0x5ba874e13d2cf3161f89d1b1d1732d14226dbf16",
        "gas": "0x7d453",
        "value": "0x0",
        "data": "0xbec999dd0000000000000000000000000844b1ec6ee5e2f575aa55724057721b9cd30e8000000000000000000000000019544eaff5959f228d2d76df1570b220121518a80000000000000000000000000000000000000000000000000000000000000fa0000000000000000000000000000000000000000000000000000000000000000a000000000000000000000000020664b9f354c415a7d01daa483cf78afe02f66efffffffffffffffffffffffffffffffffffffffffffffffffffffffffffffda8000000000000000000000000000000000000000000000000000000000000025800000000000000000000000000000000000000000000021e19e0c9bab240000000000000000000000000000000000000000000000000000000000000000001200000000000000000000000000000000000000000000000000000000000000000",
        "nonce": "0x1b",
        "accessList": []
      },
      "additionalContracts": [],
      "isFixedGasLimit": false
    }
  ],
  "receipts": [
    {
      "transactionHash": "0x72ee77fa725b924b751909bb8afa88f6b1f2a4e2b8bbd498e8596cff07999a0f",
      "transactionIndex": "0x1",
      "blockHash": "0xec2da9202215cc7758f623589e55bfe2cecbcfaccd8713d8278e97b1c09870b2",
      "blockNumber": "0x715d28",
      "from": "0xE65FB27FB655F854AfC66fA9fBF64f0299499A9F",
      "to": "0x0844B1EC6ee5E2F575Aa55724057721b9cd30e80",
      "cumulativeGasUsed": "0x18152",
      "gasUsed": "0xb52b",
      "contractAddress": null,
      "logs": [
        {
          "address": "0x0844B1EC6ee5E2F575Aa55724057721b9cd30e80",
          "topics": [
            "0x8c5be1e5ebec7d5bd14f71427d1e84f3dd0314c0f7b2291e5b200ac8c7c3b925",
            "0x000000000000000000000000e65fb27fb655f854afc66fa9fbf64f0299499a9f",
            "0x0000000000000000000000005ba874e13d2cf3161f89d1b1d1732d14226dbf16"
          ],
          "data": "0x00000000000000000000000000000000000000000000003635c9adc5dea00000",
          "blockHash": "0xec2da9202215cc7758f623589e55bfe2cecbcfaccd8713d8278e97b1c09870b2",
          "blockNumber": "0x715d28",
          "transactionHash": "0x72ee77fa725b924b751909bb8afa88f6b1f2a4e2b8bbd498e8596cff07999a0f",
          "transactionIndex": "0x1",
          "logIndex": "0x0",
          "removed": false
        }
      ],
      "status": "0x1",
      "logsBloom": "0x40000000000000000000000000000000000000000000000000000000000000000000000000200000000000000000000002400000000000000000000000200000000000000000000000000000000000000000000000000000000000000000000000000000000000000000000000000002000000000000000000000000000000000000000000000000000000000000400000000000000000000000000000000000020000400000000000000000000000000000000000000000000000000000000000000000000000000000000000000000005000000000000000000000000000000010000000000000000000000000000000000000000000000000000000000000",
      "type": "0x2",
      "effectiveGasPrice": "0xb5cf2550"
    },
    {
      "transactionHash": "0xb43f714a1dba07e65c65a69bc6f03567d038aa3ee1485cc10ed601a36d461b00",
      "transactionIndex": "0x2",
      "blockHash": "0xec2da9202215cc7758f623589e55bfe2cecbcfaccd8713d8278e97b1c09870b2",
      "blockNumber": "0x715d28",
      "from": "0xE65FB27FB655F854AfC66fA9fBF64f0299499A9F",
      "to": "0x19544eafF5959f228D2d76dF1570B220121518A8",
      "cumulativeGasUsed": "0x2367d",
      "gasUsed": "0xb52b",
      "contractAddress": null,
      "logs": [
        {
          "address": "0x19544eafF5959f228D2d76dF1570B220121518A8",
          "topics": [
            "0x8c5be1e5ebec7d5bd14f71427d1e84f3dd0314c0f7b2291e5b200ac8c7c3b925",
            "0x000000000000000000000000e65fb27fb655f854afc66fa9fbf64f0299499a9f",
            "0x0000000000000000000000005ba874e13d2cf3161f89d1b1d1732d14226dbf16"
          ],
          "data": "0x00000000000000000000000000000000000000000000003635c9adc5dea00000",
          "blockHash": "0xec2da9202215cc7758f623589e55bfe2cecbcfaccd8713d8278e97b1c09870b2",
          "blockNumber": "0x715d28",
          "transactionHash": "0xb43f714a1dba07e65c65a69bc6f03567d038aa3ee1485cc10ed601a36d461b00",
          "transactionIndex": "0x2",
          "logIndex": "0x1",
          "removed": false
        }
      ],
      "status": "0x1",
      "logsBloom": "0x40000000000000000000000000000000000000000000000000000000000000000000000000200000000000000000000002000000000000000000000000200000000000000000000000000000000000000000000000000000000000000000000000000000000000000200000000000000000000000000000000000000000000000000000000000000000000000000400000000000000000000000000000000000020000400040000000000000000000000000000000000000000000200000000000000000000000000000000000000000001000000000000000000000000000000010000000000000000000000000000000000000000000000000000000000000",
      "type": "0x2",
      "effectiveGasPrice": "0xb5cf2550"
    },
    {
      "transactionHash": "0x6ae6a1addd41e92f2e0ffc2cb1abd9e296eed2cc4e0516f83bd739ea1ca402d9",
      "transactionIndex": "0x3",
      "blockHash": "0xec2da9202215cc7758f623589e55bfe2cecbcfaccd8713d8278e97b1c09870b2",
      "blockNumber": "0x715d28",
      "from": "0xE65FB27FB655F854AfC66fA9fBF64f0299499A9F",
      "to": "0x5bA874E13D2Cf3161F89D1B1d1732D14226dBF16",
      "cumulativeGasUsed": "0x790f8",
      "gasUsed": "0x55a7b",
      "contractAddress": null,
      "logs": [
        {
          "address": "0xd962b16F4ec712D705106674E944B04614F077be",
          "topics": [
            "0x541c041c2cce48e614b3de043c9280f06b6164c0a1741649e2de3c3d375f7974",
            "0x19aa2b824a93fcae7f0b7f292aee9b86b81c3b3bc5c567011601d46c8f5a6810",
            "0x0000000000000000000000005ba874e13d2cf3161f89d1b1d1732d14226dbf16"
          ],
          "data": "0xfffffffffffffffffffffffffffffffffffffffffffffffffffffffffffffda8000000000000000000000000000000000000000000000000000000000000025800000000000000000000000000000000000000000000021e19e0c9bab2400000",
          "blockHash": "0xec2da9202215cc7758f623589e55bfe2cecbcfaccd8713d8278e97b1c09870b2",
          "blockNumber": "0x715d28",
          "transactionHash": "0x6ae6a1addd41e92f2e0ffc2cb1abd9e296eed2cc4e0516f83bd739ea1ca402d9",
          "transactionIndex": "0x3",
          "logIndex": "0x2",
          "removed": false
        },
        {
          "address": "0x0844B1EC6ee5E2F575Aa55724057721b9cd30e80",
          "topics": [
            "0xddf252ad1be2c89b69c2b068fc378daa952ba7f163c4a11628f55a4df523b3ef",
            "0x000000000000000000000000e65fb27fb655f854afc66fa9fbf64f0299499a9f",
            "0x000000000000000000000000d962b16f4ec712d705106674e944b04614f077be"
          ],
          "data": "0x000000000000000000000000000000000000000000000010054ddc28fe418aa9",
          "blockHash": "0xec2da9202215cc7758f623589e55bfe2cecbcfaccd8713d8278e97b1c09870b2",
          "blockNumber": "0x715d28",
          "transactionHash": "0x6ae6a1addd41e92f2e0ffc2cb1abd9e296eed2cc4e0516f83bd739ea1ca402d9",
          "transactionIndex": "0x3",
          "logIndex": "0x3",
          "removed": false
        },
        {
          "address": "0x19544eafF5959f228D2d76dF1570B220121518A8",
          "topics": [
            "0xddf252ad1be2c89b69c2b068fc378daa952ba7f163c4a11628f55a4df523b3ef",
            "0x000000000000000000000000e65fb27fb655f854afc66fa9fbf64f0299499a9f",
            "0x000000000000000000000000d962b16f4ec712d705106674e944b04614f077be"
          ],
          "data": "0x000000000000000000000000000000000000000000000010054ddc28fe418aa9",
          "blockHash": "0xec2da9202215cc7758f623589e55bfe2cecbcfaccd8713d8278e97b1c09870b2",
          "blockNumber": "0x715d28",
          "transactionHash": "0x6ae6a1addd41e92f2e0ffc2cb1abd9e296eed2cc4e0516f83bd739ea1ca402d9",
          "transactionIndex": "0x3",
          "logIndex": "0x4",
          "removed": false
        }
      ],
      "status": "0x1",
      "logsBloom": "0x40000000100000000000000000000000000000000020000000000000000000000000000000200000000000000000000002400000000000000000000000000000000000000000008000000008000000000000000000000000000000000000000010000000000000010200040000000002000000000000000000000018000000000000000000000000000000000000400000000000000000000000000000000000000000400040000010000000000000000000000000000000000000202000000000000002000000000000000000000000005000000000800000000000000000000000000000000000040000000000000000000020000000000000000000000000",
      "type": "0x2",
      "effectiveGasPrice": "0xb5cf2550"
    }
  ],
  "libraries": [],
  "pending": [],
  "returns": {},
  "timestamp": 1710627125,
  "chain": 84532,
  "commit": "e6d8283"
}